{
  "contractName": "Treasure",
  "abi": [
    {
      "constant": true,
      "inputs": [
        {
          "name": "",
          "type": "address"
        }
      ],
      "name": "currentInvestors",
      "outputs": [
        {
          "name": "",
          "type": "uint256"
        }
      ],
      "payable": false,
      "stateMutability": "view",
      "type": "function"
    },
    {
      "constant": true,
      "inputs": [
        {
          "name": "",
          "type": "address"
        }
      ],
      "name": "winners",
      "outputs": [
        {
          "name": "round",
          "type": "uint256"
        },
        {
          "name": "date",
          "type": "uint256"
        },
        {
          "name": "amount",
          "type": "uint256"
        }
      ],
      "payable": false,
      "stateMutability": "view",
      "type": "function"
    },
    {
      "constant": true,
      "inputs": [
        {
          "name": "",
          "type": "address"
        }
      ],
      "name": "investors",
      "outputs": [
        {
          "name": "",
          "type": "uint256"
        }
      ],
      "payable": false,
      "stateMutability": "view",
      "type": "function"
    },
    {
      "constant": true,
      "inputs": [
        {
          "name": "",
          "type": "uint256"
        }
      ],
      "name": "currentInvestorAddresses",
      "outputs": [
        {
          "name": "",
          "type": "address"
        }
      ],
      "payable": false,
      "stateMutability": "view",
      "type": "function"
    },
    {
      "constant": true,
      "inputs": [],
      "name": "owner",
      "outputs": [
        {
          "name": "",
          "type": "address"
        }
      ],
      "payable": false,
      "stateMutability": "view",
      "type": "function"
    },
    {
      "constant": true,
      "inputs": [
        {
          "name": "",
          "type": "uint256"
        }
      ],
      "name": "currentHunterAddresses",
      "outputs": [
        {
          "name": "",
          "type": "address"
        }
      ],
      "payable": false,
      "stateMutability": "view",
      "type": "function"
    },
    {
      "constant": true,
      "inputs": [
        {
          "name": "",
          "type": "address"
        }
      ],
      "name": "hunters",
      "outputs": [
        {
          "name": "",
          "type": "uint256"
        }
      ],
      "payable": false,
      "stateMutability": "view",
      "type": "function"
    },
    {
      "constant": true,
      "inputs": [
        {
          "name": "",
          "type": "address"
        }
      ],
      "name": "currentHunters",
      "outputs": [
        {
          "name": "",
          "type": "uint256"
        }
      ],
      "payable": false,
      "stateMutability": "view",
      "type": "function"
    },
    {
      "constant": false,
      "inputs": [
        {
          "name": "newOwner",
          "type": "address"
        }
      ],
      "name": "transferOwnership",
      "outputs": [],
      "payable": false,
      "stateMutability": "nonpayable",
      "type": "function"
    },
    {
      "inputs": [],
      "payable": false,
      "stateMutability": "nonpayable",
      "type": "constructor"
    },
    {
      "anonymous": false,
      "inputs": [
        {
          "indexed": false,
          "name": "_hunter",
          "type": "address"
        }
      ],
      "name": "Bet",
      "type": "event"
    },
    {
      "anonymous": false,
      "inputs": [
        {
          "indexed": false,
          "name": "_investor",
          "type": "address"
        },
        {
          "indexed": false,
          "name": "_reward",
          "type": "uint256"
        }
      ],
      "name": "Invest",
      "type": "event"
    },
    {
      "anonymous": false,
      "inputs": [
        {
          "indexed": false,
          "name": "_reward",
          "type": "uint256"
        }
      ],
      "name": "StartGame",
      "type": "event"
    },
    {
      "anonymous": false,
      "inputs": [
        {
          "indexed": false,
          "name": "_hunter",
          "type": "address"
        },
        {
          "indexed": false,
          "name": "_winningNumber",
          "type": "uint256"
        },
        {
          "indexed": false,
          "name": "_reward",
          "type": "uint256"
        }
      ],
      "name": "FinishGame",
      "type": "event"
    },
    {
      "anonymous": false,
      "inputs": [
        {
          "indexed": true,
          "name": "previousOwner",
          "type": "address"
        },
        {
          "indexed": true,
          "name": "newOwner",
          "type": "address"
        }
      ],
      "name": "OwnershipTransferred",
      "type": "event"
    },
    {
      "constant": true,
      "inputs": [],
      "name": "getWinningNumberDigits",
      "outputs": [
        {
          "name": "",
          "type": "uint256"
        }
      ],
      "payable": false,
      "stateMutability": "view",
      "type": "function"
    },
    {
      "constant": false,
      "inputs": [
        {
          "name": "_digits",
          "type": "uint256"
        }
      ],
      "name": "setWinningNumberDigits",
      "outputs": [],
      "payable": false,
      "stateMutability": "nonpayable",
      "type": "function"
    },
    {
      "constant": true,
      "inputs": [],
      "name": "getInvestPeriod",
      "outputs": [
        {
          "name": "",
          "type": "uint256"
        }
      ],
      "payable": false,
      "stateMutability": "view",
      "type": "function"
    },
    {
      "constant": true,
      "inputs": [],
      "name": "getInvestExpireAt",
      "outputs": [
        {
          "name": "",
          "type": "uint256"
        }
      ],
      "payable": false,
      "stateMutability": "view",
      "type": "function"
    },
    {
      "constant": false,
      "inputs": [
        {
          "name": "_inSeconds",
          "type": "uint256"
        }
      ],
      "name": "setInvestPeriod",
      "outputs": [],
      "payable": false,
      "stateMutability": "nonpayable",
      "type": "function"
    },
    {
      "constant": true,
      "inputs": [],
      "name": "getInvestPrice",
      "outputs": [
        {
          "name": "",
          "type": "uint256"
        }
      ],
      "payable": false,
      "stateMutability": "view",
      "type": "function"
    },
    {
      "constant": false,
      "inputs": [
        {
          "name": "_price",
          "type": "uint256"
        }
      ],
      "name": "setInvestPricePerAddress",
      "outputs": [],
      "payable": false,
      "stateMutability": "nonpayable",
      "type": "function"
    },
    {
      "constant": true,
      "inputs": [],
      "name": "getHunterAddresses",
      "outputs": [
        {
          "name": "",
          "type": "address[]"
        }
      ],
      "payable": false,
      "stateMutability": "view",
      "type": "function"
    },
    {
      "constant": true,
      "inputs": [],
      "name": "getInvestorAddresses",
      "outputs": [
        {
          "name": "",
          "type": "address[]"
        }
      ],
      "payable": false,
      "stateMutability": "view",
      "type": "function"
    },
    {
      "constant": true,
      "inputs": [
        {
          "name": "_addr",
          "type": "address"
        }
      ],
      "name": "getClientBalance",
      "outputs": [
        {
          "name": "",
          "type": "uint256"
        }
      ],
      "payable": false,
      "stateMutability": "view",
      "type": "function"
    },
    {
      "constant": true,
      "inputs": [],
      "name": "getMinimumWinningReward",
      "outputs": [
        {
          "name": "",
          "type": "uint256"
        }
      ],
      "payable": false,
      "stateMutability": "view",
      "type": "function"
    },
    {
      "constant": false,
      "inputs": [
        {
          "name": "_minimum",
          "type": "uint256"
        }
      ],
      "name": "setMinimumWinningReward",
      "outputs": [],
      "payable": false,
      "stateMutability": "nonpayable",
      "type": "function"
    },
    {
      "constant": true,
      "inputs": [],
      "name": "getReward",
      "outputs": [
        {
          "name": "",
          "type": "uint256"
        }
      ],
      "payable": false,
      "stateMutability": "view",
      "type": "function"
    },
    {
      "constant": true,
      "inputs": [],
      "name": "getState",
      "outputs": [
        {
          "name": "",
          "type": "uint8"
        }
      ],
      "payable": false,
      "stateMutability": "view",
      "type": "function"
    },
    {
      "constant": true,
      "inputs": [],
      "name": "getContractAddress",
      "outputs": [
        {
          "name": "",
          "type": "address"
        }
      ],
      "payable": false,
      "stateMutability": "view",
      "type": "function"
    },
    {
      "constant": false,
      "inputs": [],
      "name": "invest",
      "outputs": [],
      "payable": true,
      "stateMutability": "payable",
      "type": "function"
    },
    {
      "constant": false,
      "inputs": [
        {
          "name": "_guessingNumber",
          "type": "uint256"
        }
      ],
      "name": "bet",
      "outputs": [],
      "payable": true,
      "stateMutability": "payable",
      "type": "function"
    }
  ],
  "bytecode": "0x606060405234156200001057600080fd5b336000806101000a81548173ffffffffffffffffffffffffffffffffffffffff021916908373ffffffffffffffffffffffffffffffffffffffff16021790555060016008819055506003600c81905550603c60058190555060056002819055506611c37937e080006007819055506200009c620000a26401000000000262001428176401000000009004565b62000312565b600080600a81905550426003819055506000600960006101000a81548160ff02191690836001811115620000d257fe5b021790555060009050600090505b6013805490508110156200017a57601260006013838154811015156200010257fe5b906000526020600020900160009054906101000a900473ffffffffffffffffffffffffffffffffffffffff1673ffffffffffffffffffffffffffffffffffffffff1673ffffffffffffffffffffffffffffffffffffffff168152602001908152602001600020600090558080600101915050620000e0565b601360006200018a9190620002c7565b600090505b6010805490508110156200022957600f6000601083815481101515620001b157fe5b906000526020600020900160009054906101000a900473ffffffffffffffffffffffffffffffffffffffff1673ffffffffffffffffffffffffffffffffffffffff1673ffffffffffffffffffffffffffffffffffffffff1681526020019081526020016000206000905580806001019150506200018f565b60106000620002399190620002c7565b60055460035401600481905550600c54600a024233600854604051808481526020018373ffffffffffffffffffffffffffffffffffffffff1673ffffffffffffffffffffffffffffffffffffffff166c010000000000000000000000000281526014018281526020019350505050604051809103902060019004811515620002bd57fe5b06600b8190555050565b5080546000825590600052602060002090810190620002e79190620002ea565b50565b6200030f91905b808211156200030b576000816000905550600101620002f1565b5090565b90565b61177d80620003226000396000f300606060405260043610610154576000357c0100000000000000000000000000000000000000000000000000000000900463ffffffff168063029a7f8d146101595780631865c57d1461018257806332a2c5d0146101b95780633844e1c41461020e5780633d18b9121461025b5780633dcdc7c7146102845780634c8d7e58146102ad5780634e75e1b8146102d057806365aaa564146102f35780636bd5450a146103405780636f7bc9be1461039b5780636fcf30ee146103e85780637365870b1461044b57806379d8e9cc146104635780638da5cb5b146104cd5780638e8a842a146105225780639c591bce146105455780639fb6b95514610568578063a28b1074146105cb578063a89e0b25146105f4578063bdafeb181461061d578063db7f7d171461066a578063e4158b83146106b7578063e8b5e51f14610721578063f2fde38b1461072b578063fd5f25c714610764575b600080fd5b341561016457600080fd5b61016c61078d565b6040518082815260200191505060405180910390f35b341561018d57600080fd5b610195610797565b604051808260018111156101a557fe5b60ff16815260200191505060405180910390f35b34156101c457600080fd5b6101cc6107ae565b604051808273ffffffffffffffffffffffffffffffffffffffff1673ffffffffffffffffffffffffffffffffffffffff16815260200191505060405180910390f35b341561021957600080fd5b610245600480803573ffffffffffffffffffffffffffffffffffffffff169060200190919050506107b6565b6040518082815260200191505060405180910390f35b341561026657600080fd5b61026e6107d7565b6040518082815260200191505060405180910390f35b341561028f57600080fd5b6102976107f6565b6040518082815260200191505060405180910390f35b34156102b857600080fd5b6102ce6004808035906020019091905050610800565b005b34156102db57600080fd5b6102f16004808035906020019091905050610877565b005b34156102fe57600080fd5b61032a600480803573ffffffffffffffffffffffffffffffffffffffff169060200190919050506108ee565b6040518082815260200191505060405180910390f35b341561034b57600080fd5b610377600480803573ffffffffffffffffffffffffffffffffffffffff16906020019091905050610906565b60405180848152602001838152602001828152602001935050505060405180910390f35b34156103a657600080fd5b6103d2600480803573ffffffffffffffffffffffffffffffffffffffff16906020019091905050610930565b6040518082815260200191505060405180910390f35b34156103f357600080fd5b6104096004808035906020019091905050610948565b604051808273ffffffffffffffffffffffffffffffffffffffff1673ffffffffffffffffffffffffffffffffffffffff16815260200191505060405180910390f35b6104616004808035906020019091905050610987565b005b341561046e57600080fd5b610476610d7c565b6040518080602001828103825283818151815260200191508051906020019060200280838360005b838110156104b957808201518184015260208101905061049e565b505050509050019250505060405180910390f35b34156104d857600080fd5b6104e0610e10565b604051808273ffffffffffffffffffffffffffffffffffffffff1673ffffffffffffffffffffffffffffffffffffffff16815260200191505060405180910390f35b341561052d57600080fd5b6105436004808035906020019091905050610e35565b005b341561055057600080fd5b6105666004808035906020019091905050610eac565b005b341561057357600080fd5b6105896004808035906020019091905050610f11565b604051808273ffffffffffffffffffffffffffffffffffffffff1673ffffffffffffffffffffffffffffffffffffffff16815260200191505060405180910390f35b34156105d657600080fd5b6105de610f50565b6040518082815260200191505060405180910390f35b34156105ff57600080fd5b610607610f5a565b6040518082815260200191505060405180910390f35b341561062857600080fd5b610654600480803573ffffffffffffffffffffffffffffffffffffffff16906020019091905050610f64565b6040518082815260200191505060405180910390f35b341561067557600080fd5b6106a1600480803573ffffffffffffffffffffffffffffffffffffffff16906020019091905050610f7c565b6040518082815260200191505060405180910390f35b34156106c257600080fd5b6106ca610f94565b6040518080602001828103825283818151815260200191508051906020019060200280838360005b8381101561070d5780820151818401526020810190506106f2565b505050509050019250505060405180910390f35b610729611028565b005b341561073657600080fd5b610762600480803573ffffffffffffffffffffffffffffffffffffffff169060200190919050506112c9565b005b341561076f57600080fd5b61077761141e565b6040518082815260200191505060405180910390f35b6000600654905090565b6000600960009054906101000a900460ff16905090565b600030905090565b60008173ffffffffffffffffffffffffffffffffffffffff16319050919050565b60003073ffffffffffffffffffffffffffffffffffffffff1631905090565b6000600c54905090565b6000809054906101000a900473ffffffffffffffffffffffffffffffffffffffff1673ffffffffffffffffffffffffffffffffffffffff163373ffffffffffffffffffffffffffffffffffffffff1614151561085b57600080fd5b6000600a541415151561086d57600080fd5b8060058190555050565b6000809054906101000a900473ffffffffffffffffffffffffffffffffffffffff1673ffffffffffffffffffffffffffffffffffffffff163373ffffffffffffffffffffffffffffffffffffffff161415156108d257600080fd5b6000600a54141515156108e457600080fd5b8060068190555050565b60126020528060005260406000206000915090505481565b600d6020528060005260406000206000915090508060000154908060010154908060020154905083565b60116020528060005260406000206000915090505481565b60138181548110151561095757fe5b90600052602060002090016000915054906101000a900473ffffffffffffffffffffffffffffffffffffffff1681565b60008060008060008060008060018081111561099f57fe5b600960009054906101000a900460ff1660018111156109ba57fe5b1415156109c657600080fd5b60015434101515156109d757600080fd5b600154600e60003373ffffffffffffffffffffffffffffffffffffffff1673ffffffffffffffffffffffffffffffffffffffff1681526020019081526020016000206000828254019250508190555060108054806001018281610a3a91906116cb565b9160005260206000209001600033909190916101000a81548173ffffffffffffffffffffffffffffffffffffffff021916908373ffffffffffffffffffffffffffffffffffffffff16021790555050600154340397506000881115610ada573373ffffffffffffffffffffffffffffffffffffffff166108fc899081150290604051600060405180830381858888f193505050501515610ad957600080fd5b5b600b54891496508615610cff573073ffffffffffffffffffffffffffffffffffffffff16319550600286811515610b0d57fe5b049450848603935060138054905092508284811515610b2857fe5b0491503373ffffffffffffffffffffffffffffffffffffffff166108fc869081150290604051600060405180830381858888f193505050501515610b6b57600080fd5b606060405190810160405280600854815260200142815260200187815250600d60003373ffffffffffffffffffffffffffffffffffffffff1673ffffffffffffffffffffffffffffffffffffffff1681526020019081526020016000206000820151816000015560208201518160010155604082015181600201559050507f24f0fd24923e4709397160fd2d73547b4909eda7d9a46b14ae493d6d7d1783b133600b5487604051808473ffffffffffffffffffffffffffffffffffffffff1673ffffffffffffffffffffffffffffffffffffffff168152602001838152602001828152602001935050505060405180910390a1600090505b82811015610cf257601381815481101515610c7a57fe5b906000526020600020900160009054906101000a900473ffffffffffffffffffffffffffffffffffffffff1673ffffffffffffffffffffffffffffffffffffffff166108fc839081150290604051600060405180830381858888f193505050501515610ce557600080fd5b8080600101915050610c63565b610cfa611428565b610d71565b610d07611641565b6001819055507fb7d130e59ce2d673030116a965b2ef42f68547155234b2a8762c19711831d23633604051808273ffffffffffffffffffffffffffffffffffffffff1673ffffffffffffffffffffffffffffffffffffffff16815260200191505060405180910390a15b505050505050505050565b610d846116f7565b6013805480602002602001604051908101604052809291908181526020018280548015610e0657602002820191906000526020600020905b8160009054906101000a900473ffffffffffffffffffffffffffffffffffffffff1673ffffffffffffffffffffffffffffffffffffffff1681526020019060010190808311610dbc575b5050505050905090565b6000809054906101000a900473ffffffffffffffffffffffffffffffffffffffff1681565b6000809054906101000a900473ffffffffffffffffffffffffffffffffffffffff1673ffffffffffffffffffffffffffffffffffffffff163373ffffffffffffffffffffffffffffffffffffffff16141515610e9057600080fd5b6000600a5414151515610ea257600080fd5b80600c8190555050565b6000809054906101000a900473ffffffffffffffffffffffffffffffffffffffff1673ffffffffffffffffffffffffffffffffffffffff163373ffffffffffffffffffffffffffffffffffffffff16141515610f0757600080fd5b8060078190555050565b601081815481101515610f2057fe5b90600052602060002090016000915054906101000a900473ffffffffffffffffffffffffffffffffffffffff1681565b6000600454905090565b6000600754905090565b600e6020528060005260406000206000915090505481565b600f6020528060005260406000206000915090505481565b610f9c6116f7565b601080548060200260200160405190810160405280929190818152602001828054801561101e57602002820191906000526020600020905b8160009054906101000a900473ffffffffffffffffffffffffffffffffffffffff1673ffffffffffffffffffffffffffffffffffffffff1681526020019060010190808311610fd4575b5050505050905090565b600080600181111561103657fe5b600960009054906101000a900460ff16600181111561105157fe5b14151561105d57600080fd5b600654341015151561106e57600080fd5b6000601160003373ffffffffffffffffffffffffffffffffffffffff1673ffffffffffffffffffffffffffffffffffffffff168152602001908152602001600020541415156110bc57600080fd5b600654601160003373ffffffffffffffffffffffffffffffffffffffff1673ffffffffffffffffffffffffffffffffffffffff168152602001908152602001600020600082825401925050819055506013805480600101828161111f91906116cb565b9160005260206000209001600033909190916101000a81548173ffffffffffffffffffffffffffffffffffffffff021916908373ffffffffffffffffffffffffffffffffffffffff160217905550506006543403905060008111156111bf573373ffffffffffffffffffffffffffffffffffffffff166108fc829081150290604051600060405180830381858888f1935050505015156111be57600080fd5b5b7fd90d253a9de34d2fdd5a75ae49ea17fcb43af32fc8ea08cc6d2341991dd3872e333073ffffffffffffffffffffffffffffffffffffffff1631604051808373ffffffffffffffffffffffffffffffffffffffff1673ffffffffffffffffffffffffffffffffffffffff1681526020018281526020019250505060405180910390a14260045410801561126a57506007543073ffffffffffffffffffffffffffffffffffffffff1631115b156112c657611277611680565b7f12333b322723ec26360eb708b341801ecca576387b55caa77d6e408107d2c70f3073ffffffffffffffffffffffffffffffffffffffff16316040518082815260200191505060405180910390a15b50565b6000809054906101000a900473ffffffffffffffffffffffffffffffffffffffff1673ffffffffffffffffffffffffffffffffffffffff163373ffffffffffffffffffffffffffffffffffffffff1614151561132457600080fd5b600073ffffffffffffffffffffffffffffffffffffffff168173ffffffffffffffffffffffffffffffffffffffff161415151561136057600080fd5b8073ffffffffffffffffffffffffffffffffffffffff166000809054906101000a900473ffffffffffffffffffffffffffffffffffffffff1673ffffffffffffffffffffffffffffffffffffffff167f8be0079c531659141344cd1fd0a4f28419497f9722a3daafe3b4186f6b6457e060405160405180910390a3806000806101000a81548173ffffffffffffffffffffffffffffffffffffffff021916908373ffffffffffffffffffffffffffffffffffffffff16021790555050565b6000600554905090565b600080600a81905550426003819055506000600960006101000a81548160ff0219169083600181111561145757fe5b021790555060009050600090505b6013805490508110156114fc576012600060138381548110151561148557fe5b906000526020600020900160009054906101000a900473ffffffffffffffffffffffffffffffffffffffff1673ffffffffffffffffffffffffffffffffffffffff1673ffffffffffffffffffffffffffffffffffffffff168152602001908152602001600020600090558080600101915050611465565b6013600061150a919061170b565b600090505b6010805490508110156115a657600f600060108381548110151561152f57fe5b906000526020600020900160009054906101000a900473ffffffffffffffffffffffffffffffffffffffff1673ffffffffffffffffffffffffffffffffffffffff1673ffffffffffffffffffffffffffffffffffffffff16815260200190815260200160002060009055808060010191505061150f565b601060006115b4919061170b565b60055460035401600481905550600c54600a024233600854604051808481526020018373ffffffffffffffffffffffffffffffffffffffff1673ffffffffffffffffffffffffffffffffffffffff166c01000000000000000000000000028152601401828152602001935050505060405180910390206001900481151561163757fe5b06600b8190555050565b6000600a600254600c54600a0a0281151561165857fe5b043073ffffffffffffffffffffffffffffffffffffffff163181151561167a57fe5b04905090565b6001600960006101000a81548160ff0219169083600181111561169f57fe5b021790555042600a81905550600060038190555060006004819055506116c3611641565b600181905550565b8154818355818115116116f2578183600052602060002091820191016116f1919061172c565b5b505050565b602060405190810160405280600081525090565b5080546000825590600052602060002090810190611729919061172c565b50565b61174e91905b8082111561174a576000816000905550600101611732565b5090565b905600a165627a7a7230582062f738e77083f3c1c7d30f3d1cc7d848cad97e6476e9a39f0c086592562435ec0029",
  "source": "pragma solidity ^0.4.17;\n\nimport 'zeppelin-solidity/contracts/ownership/Ownable.sol';\n\ncontract Treasure is Ownable {\n    uint bettingPrice;\n    uint bettingRate; // 1-10\n\n    uint investStartedAt;\n    uint investExpireAt;\n    uint investPeriodInSeconds;\n    uint investPricePerAddress;\n    uint minimumWinningReward;\n\n    uint round;\n    enum Status {INVESTING, BETTING}\n\n    Status currentState;\n    uint gameStartedAt;\n\n\n    uint winningNumber;\n    uint winningNumberDigits;\n\n    struct Reward {\n        uint round;\n        uint date;\n        uint amount;\n    }\n\n    mapping(address => Reward) public winners;\n\n    mapping(address => uint) public hunters;\n    mapping(address => uint) public currentHunters;\n    address[] public currentHunterAddresses;\n    mapping(address => uint) public investors;\n    mapping(address => uint) public currentInvestors;\n    address[] public currentInvestorAddresses;\n\n    event Bet(address _hunter);\n    event Invest(address _investor, uint _reward);\n    event StartGame(uint _reward);\n    event FinishGame(address _hunter, uint _winningNumber, uint _reward);\n\n    function Treasure() public {\n        round = 1;\n        winningNumberDigits = 3;\n        investPeriodInSeconds = 60;\n        bettingRate=5;\n        minimumWinningReward=5000000000000000;\n        initGame();\n    }\n\n    function initGame() private {\n        gameStartedAt = 0;\n        investStartedAt = now;\n        currentState = Status.INVESTING;\n        uint i=0;\n        for(i=0; i <currentInvestorAddresses.length;i++){\n            delete currentInvestors[currentInvestorAddresses[i]];\n        }\n        delete currentInvestorAddresses;\n\n        for(i=0; i <currentHunterAddresses.length;i++){\n            delete currentHunters[currentHunterAddresses[i]];\n        }\n        delete currentHunterAddresses;\n\n        investExpireAt = investStartedAt + investPeriodInSeconds;\n        winningNumber = uint(keccak256(now, msg.sender, round)) % (10 * winningNumberDigits);\n    }\n\n    //  bettingPrice = Reward/10**winningNumberDigits*bettingRate\n    function startGame() private {\n        currentState = Status.BETTING;\n        gameStartedAt = now;\n        investStartedAt = 0;\n        investExpireAt = 0;\n        bettingPrice = getNewBettingPrice();\n    }\n\n    function finishGame() private {\n        initGame();\n    }\n\n    function getNewBettingPrice() private view returns(uint){\n        return (address(this).balance)/((10**winningNumberDigits)*bettingRate/10);\n    }\n\n    function getWinningNumberDigits() public view returns (uint){\n        return winningNumberDigits;\n    }\n\n    function setWinningNumberDigits(uint _digits) external onlyOwner {\n        require(gameStartedAt != 0);\n\n        winningNumberDigits = _digits;\n    }\n\n    function getInvestPeriod() public view returns (uint){\n        return investPeriodInSeconds;\n    }\n\n    function getInvestExpireAt() public view returns (uint){\n        return investExpireAt;\n    }\n\n    function setInvestPeriod(uint _inSeconds) external onlyOwner {\n        require(gameStartedAt != 0);\n\n        investPeriodInSeconds = _inSeconds;\n    }\n\n    function getInvestPrice() public view returns (uint) {\n        return investPricePerAddress;\n    }\n\n    function setInvestPricePerAddress(uint _price) external onlyOwner {\n        require(gameStartedAt != 0);\n\n        investPricePerAddress = _price;\n    }\n\n    function getHunterAddresses() public view returns (address[]){\n        return currentHunterAddresses;\n    }\n\n    function getInvestorAddresses() public view returns (address[]){\n        return currentInvestorAddresses;\n    }\n\n    function getClientBalance(address _addr) public view returns (uint) {\n        return _addr.balance;\n    }\n\n    function getMinimumWinningReward() public view returns (uint) {\n        return minimumWinningReward;\n    }\n\n    function setMinimumWinningReward(uint _minimum) external onlyOwner {\n        minimumWinningReward = _minimum;\n    }\n\n    function getReward() public view returns (uint) {\n        return address(this).balance;\n    }\n\n    function getState() public view returns (Status) {\n        return currentState;\n    }\n\n    function getContractAddress() public view returns (address) {\n        return address(this);\n    }\n\n    function invest() payable public {\n        require(currentState == Status.INVESTING);\n        require(msg.value >= investPricePerAddress);\n        require(investors[msg.sender] == 0);\n\n\n        investors[msg.sender] += investPricePerAddress;\n        currentInvestorAddresses.push(msg.sender);\n\n        uint _overSentValue = msg.value - investPricePerAddress;\n        if (_overSentValue > 0) {\n            msg.sender.transfer(_overSentValue);\n        }\n\n        emit Invest(msg.sender, address(this).balance);\n\n        if (investExpireAt < now && address(this).balance > minimumWinningReward){\n\n            startGame();\n            emit StartGame(address(this).balance);\n        }\n\n    }\n\n    function bet(uint _guessingNumber) payable public {\n        require(currentState == Status.BETTING);\n        require(msg.value >= bettingPrice);\n\n        hunters[msg.sender] += bettingPrice;\n        currentHunterAddresses.push(msg.sender);\n\n        uint _overSentValue = msg.value - bettingPrice;\n        if (_overSentValue > 0) {\n            msg.sender.transfer(_overSentValue);\n        }\n\n        bool _won = _guessingNumber == winningNumber;\n        if (_won) {\n            uint _totalReward = address(this).balance;\n            uint _betterReward = _totalReward / 2;\n            uint _investorsReward = _totalReward - _betterReward;\n            uint _investorsCount = currentInvestorAddresses.length ;\n            uint _investorReward = _investorsReward / _investorsCount;\n            msg.sender.transfer(_betterReward);\n\n            winners[msg.sender] = Reward({amount : _totalReward, date : now, round : round});\n\n            emit FinishGame(msg.sender, winningNumber, _betterReward);\n\n            for (uint i = 0; i < _investorsCount; i++) {\n                currentInvestorAddresses[i].transfer(_investorReward);\n            }\n            initGame();\n        } else {\n            bettingPrice = getNewBettingPrice();\n\n            emit Bet(msg.sender);\n        }\n    }\n}",
  "sourcePath": "/Users/deukyeolchoe/projects/treasure-hunter/contracts/Treasure.sol",
  "compiler": {
    "name": "solc",
    "version": "0.4.21+commit.dfe3193c.Emscripten.clang"
  },
  "schemaVersion": "2.0.0",
  "updatedAt": "2018-04-24T10:44:01.522Z"
}