{
  "contractName": "Treasure",
  "abi": [
    {
      "constant": true,
      "inputs": [
        {
          "name": "",
          "type": "address"
        }
      ],
      "name": "currentInvestors",
      "outputs": [
        {
          "name": "",
          "type": "uint256"
        }
      ],
      "payable": false,
      "stateMutability": "view",
      "type": "function"
    },
    {
      "constant": true,
      "inputs": [
        {
          "name": "",
          "type": "address"
        }
      ],
      "name": "winners",
      "outputs": [
        {
          "name": "round",
          "type": "uint256"
        },
        {
          "name": "date",
          "type": "uint256"
        },
        {
          "name": "amount",
          "type": "uint256"
        }
      ],
      "payable": false,
      "stateMutability": "view",
      "type": "function"
    },
    {
      "constant": true,
      "inputs": [
        {
          "name": "",
          "type": "address"
        }
      ],
      "name": "investors",
      "outputs": [
        {
          "name": "",
          "type": "uint256"
        }
      ],
      "payable": false,
      "stateMutability": "view",
      "type": "function"
    },
    {
      "constant": true,
      "inputs": [
        {
          "name": "",
          "type": "uint256"
        }
      ],
      "name": "currentInvestorAddresses",
      "outputs": [
        {
          "name": "",
          "type": "address"
        }
      ],
      "payable": false,
      "stateMutability": "view",
      "type": "function"
    },
    {
      "constant": true,
      "inputs": [],
      "name": "owner",
      "outputs": [
        {
          "name": "",
          "type": "address"
        }
      ],
      "payable": false,
      "stateMutability": "view",
      "type": "function"
    },
    {
      "constant": true,
      "inputs": [
        {
          "name": "",
          "type": "uint256"
        }
      ],
      "name": "currentHunterAddresses",
      "outputs": [
        {
          "name": "",
          "type": "address"
        }
      ],
      "payable": false,
      "stateMutability": "view",
      "type": "function"
    },
    {
      "constant": true,
      "inputs": [
        {
          "name": "",
          "type": "address"
        }
      ],
      "name": "hunters",
      "outputs": [
        {
          "name": "",
          "type": "uint256"
        }
      ],
      "payable": false,
      "stateMutability": "view",
      "type": "function"
    },
    {
      "constant": true,
      "inputs": [
        {
          "name": "",
          "type": "address"
        }
      ],
      "name": "currentHunters",
      "outputs": [
        {
          "name": "",
          "type": "uint256"
        }
      ],
      "payable": false,
      "stateMutability": "view",
      "type": "function"
    },
    {
      "constant": false,
      "inputs": [
        {
          "name": "newOwner",
          "type": "address"
        }
      ],
      "name": "transferOwnership",
      "outputs": [],
      "payable": false,
      "stateMutability": "nonpayable",
      "type": "function"
    },
    {
      "inputs": [],
      "payable": false,
      "stateMutability": "nonpayable",
      "type": "constructor"
    },
    {
      "anonymous": false,
      "inputs": [
        {
          "indexed": false,
          "name": "_hunter",
          "type": "address"
        }
      ],
      "name": "Bet",
      "type": "event"
    },
    {
      "anonymous": false,
      "inputs": [
        {
          "indexed": false,
          "name": "_investor",
          "type": "address"
        },
        {
          "indexed": false,
          "name": "_reward",
          "type": "uint256"
        }
      ],
      "name": "Invest",
      "type": "event"
    },
    {
      "anonymous": false,
      "inputs": [
        {
          "indexed": false,
          "name": "_reward",
          "type": "uint256"
        }
      ],
      "name": "StartGame",
      "type": "event"
    },
    {
      "anonymous": false,
      "inputs": [
        {
          "indexed": false,
          "name": "_hunter",
          "type": "address"
        },
        {
          "indexed": false,
          "name": "_winningNumber",
          "type": "uint256"
        },
        {
          "indexed": false,
          "name": "_reward",
          "type": "uint256"
        }
      ],
      "name": "FinishGame",
      "type": "event"
    },
    {
      "anonymous": false,
      "inputs": [
        {
          "indexed": true,
          "name": "previousOwner",
          "type": "address"
        },
        {
          "indexed": true,
          "name": "newOwner",
          "type": "address"
        }
      ],
      "name": "OwnershipTransferred",
      "type": "event"
    },
    {
      "constant": true,
      "inputs": [],
      "name": "getBettingPrice",
      "outputs": [
        {
          "name": "",
          "type": "uint256"
        }
      ],
      "payable": false,
      "stateMutability": "view",
      "type": "function"
    },
    {
      "constant": true,
      "inputs": [],
      "name": "getWinningNumberDigits",
      "outputs": [
        {
          "name": "",
          "type": "uint256"
        }
      ],
      "payable": false,
      "stateMutability": "view",
      "type": "function"
    },
    {
      "constant": false,
      "inputs": [
        {
          "name": "_digits",
          "type": "uint256"
        }
      ],
      "name": "setWinningNumberDigits",
      "outputs": [],
      "payable": false,
      "stateMutability": "nonpayable",
      "type": "function"
    },
    {
      "constant": true,
      "inputs": [],
      "name": "getInvestPeriod",
      "outputs": [
        {
          "name": "",
          "type": "uint256"
        }
      ],
      "payable": false,
      "stateMutability": "view",
      "type": "function"
    },
    {
      "constant": true,
      "inputs": [],
      "name": "getInvestExpireAt",
      "outputs": [
        {
          "name": "",
          "type": "uint256"
        }
      ],
      "payable": false,
      "stateMutability": "view",
      "type": "function"
    },
    {
      "constant": false,
      "inputs": [
        {
          "name": "_inSeconds",
          "type": "uint256"
        }
      ],
      "name": "setInvestPeriod",
      "outputs": [],
      "payable": false,
      "stateMutability": "nonpayable",
      "type": "function"
    },
    {
      "constant": true,
      "inputs": [],
      "name": "getInvestPrice",
      "outputs": [
        {
          "name": "",
          "type": "uint256"
        }
      ],
      "payable": false,
      "stateMutability": "view",
      "type": "function"
    },
    {
      "constant": false,
      "inputs": [
        {
          "name": "_price",
          "type": "uint256"
        }
      ],
      "name": "setInvestPricePerAddress",
      "outputs": [],
      "payable": false,
      "stateMutability": "nonpayable",
      "type": "function"
    },
    {
      "constant": true,
      "inputs": [],
      "name": "getHunterAddresses",
      "outputs": [
        {
          "name": "",
          "type": "address[]"
        }
      ],
      "payable": false,
      "stateMutability": "view",
      "type": "function"
    },
    {
      "constant": true,
      "inputs": [],
      "name": "getInvestorAddresses",
      "outputs": [
        {
          "name": "",
          "type": "address[]"
        }
      ],
      "payable": false,
      "stateMutability": "view",
      "type": "function"
    },
    {
      "constant": true,
      "inputs": [],
      "name": "getMinimumWinningReward",
      "outputs": [
        {
          "name": "",
          "type": "uint256"
        }
      ],
      "payable": false,
      "stateMutability": "view",
      "type": "function"
    },
    {
      "constant": false,
      "inputs": [
        {
          "name": "_minimum",
          "type": "uint256"
        }
      ],
      "name": "setMinimumWinningReward",
      "outputs": [],
      "payable": false,
      "stateMutability": "nonpayable",
      "type": "function"
    },
    {
      "constant": true,
      "inputs": [],
      "name": "getReward",
      "outputs": [
        {
          "name": "",
          "type": "uint256"
        }
      ],
      "payable": false,
      "stateMutability": "view",
      "type": "function"
    },
    {
      "constant": true,
      "inputs": [],
      "name": "getState",
      "outputs": [
        {
          "name": "",
          "type": "uint8"
        }
      ],
      "payable": false,
      "stateMutability": "view",
      "type": "function"
    },
    {
      "constant": true,
      "inputs": [],
      "name": "getContractAddress",
      "outputs": [
        {
          "name": "",
          "type": "address"
        }
      ],
      "payable": false,
      "stateMutability": "view",
      "type": "function"
    },
    {
      "constant": false,
      "inputs": [],
      "name": "invest",
      "outputs": [],
      "payable": true,
      "stateMutability": "payable",
      "type": "function"
    },
    {
      "constant": false,
      "inputs": [
        {
          "name": "_guessingNumber",
          "type": "uint256"
        }
      ],
      "name": "bet",
      "outputs": [],
      "payable": true,
      "stateMutability": "payable",
      "type": "function"
    }
  ],
  "bytecode": "0x60806040523480156200001157600080fd5b50336000806101000a81548173ffffffffffffffffffffffffffffffffffffffff021916908373ffffffffffffffffffffffffffffffffffffffff16021790555060016008819055506003600c81905550603c60058190555060056002819055506611c37937e0800060078190555060036007548115156200008f57fe5b0460068190555060006001819055506000600a81905550620000bf620000c5640100000000026401000000009004565b62000333565b600080600a81905550426003819055506000600960006101000a81548160ff02191690836001811115620000f557fe5b021790555060009050600090505b6013805490508110156200019c57601260006013838154811015156200012557fe5b9060005260206000200160009054906101000a900473ffffffffffffffffffffffffffffffffffffffff1673ffffffffffffffffffffffffffffffffffffffff1673ffffffffffffffffffffffffffffffffffffffff16815260200190815260200160002060009055808060010191505062000103565b60136000620001ac9190620002e8565b600090505b6010805490508110156200024a57600f6000601083815481101515620001d357fe5b9060005260206000200160009054906101000a900473ffffffffffffffffffffffffffffffffffffffff1673ffffffffffffffffffffffffffffffffffffffff1673ffffffffffffffffffffffffffffffffffffffff168152602001908152602001600020600090558080600101915050620001b1565b601060006200025a9190620002e8565b60055460035401600481905550600c54600a024233600854604051808481526020018373ffffffffffffffffffffffffffffffffffffffff1673ffffffffffffffffffffffffffffffffffffffff166c010000000000000000000000000281526014018281526020019350505050604051809103902060019004811515620002de57fe5b06600b8190555050565b50805460008255906000526020600020908101906200030891906200030b565b50565b6200033091905b808211156200032c57600081600090555060010162000312565b5090565b90565b611a5080620003436000396000f300608060405260043610610154576000357c0100000000000000000000000000000000000000000000000000000000900463ffffffff168063029a7f8d146101595780631865c57d1461018457806332a2c5d0146101bd5780633d18b912146102145780633dcdc7c71461023f5780634c8d7e581461026a5780634e75e1b81461029757806365aaa564146102c45780636bd5450a1461031b5780636f7bc9be146103805780636fcf30ee146103d757806371b804ee146104445780637365870b1461046f57806379d8e9cc1461048f5780638da5cb5b146104fb5780638e8a842a146105525780639c591bce1461057f5780639fb6b955146105ac578063a28b107414610619578063a89e0b2514610644578063bdafeb181461066f578063db7f7d17146106c6578063e4158b831461071d578063e8b5e51f14610789578063f2fde38b14610793578063fd5f25c7146107d6575b600080fd5b34801561016557600080fd5b5061016e610801565b6040518082815260200191505060405180910390f35b34801561019057600080fd5b5061019961080b565b604051808260018111156101a957fe5b60ff16815260200191505060405180910390f35b3480156101c957600080fd5b506101d2610822565b604051808273ffffffffffffffffffffffffffffffffffffffff1673ffffffffffffffffffffffffffffffffffffffff16815260200191505060405180910390f35b34801561022057600080fd5b5061022961082a565b6040518082815260200191505060405180910390f35b34801561024b57600080fd5b50610254610849565b6040518082815260200191505060405180910390f35b34801561027657600080fd5b5061029560048036038101908080359060200190929190505050610853565b005b3480156102a357600080fd5b506102c2600480360381019080803590602001909291905050506108ca565b005b3480156102d057600080fd5b50610305600480360381019080803573ffffffffffffffffffffffffffffffffffffffff169060200190929190505050610941565b6040518082815260200191505060405180910390f35b34801561032757600080fd5b5061035c600480360381019080803573ffffffffffffffffffffffffffffffffffffffff169060200190929190505050610959565b60405180848152602001838152602001828152602001935050505060405180910390f35b34801561038c57600080fd5b506103c1600480360381019080803573ffffffffffffffffffffffffffffffffffffffff169060200190929190505050610983565b6040518082815260200191505060405180910390f35b3480156103e357600080fd5b506104026004803603810190808035906020019092919050505061099b565b604051808273ffffffffffffffffffffffffffffffffffffffff1673ffffffffffffffffffffffffffffffffffffffff16815260200191505060405180910390f35b34801561045057600080fd5b506104596109d9565b6040518082815260200191505060405180910390f35b61048d600480360381019080803590602001909291905050506109e3565b005b34801561049b57600080fd5b506104a4610ea0565b6040518080602001828103825283818151815260200191508051906020019060200280838360005b838110156104e75780820151818401526020810190506104cc565b505050509050019250505060405180910390f35b34801561050757600080fd5b50610510610f2e565b604051808273ffffffffffffffffffffffffffffffffffffffff1673ffffffffffffffffffffffffffffffffffffffff16815260200191505060405180910390f35b34801561055e57600080fd5b5061057d60048036038101908080359060200190929190505050610f53565b005b34801561058b57600080fd5b506105aa60048036038101908080359060200190929190505050611033565b005b3480156105b857600080fd5b506105d760048036038101908080359060200190929190505050611098565b604051808273ffffffffffffffffffffffffffffffffffffffff1673ffffffffffffffffffffffffffffffffffffffff16815260200191505060405180910390f35b34801561062557600080fd5b5061062e6110d6565b6040518082815260200191505060405180910390f35b34801561065057600080fd5b506106596110e0565b6040518082815260200191505060405180910390f35b34801561067b57600080fd5b506106b0600480360381019080803573ffffffffffffffffffffffffffffffffffffffff1690602001909291905050506110ea565b6040518082815260200191505060405180910390f35b3480156106d257600080fd5b50610707600480360381019080803573ffffffffffffffffffffffffffffffffffffffff169060200190929190505050611102565b6040518082815260200191505060405180910390f35b34801561072957600080fd5b5061073261111a565b6040518080602001828103825283818151815260200191508051906020019060200280838360005b8381101561077557808201518184015260208101905061075a565b505050509050019250505060405180910390f35b6107916111a8565b005b34801561079f57600080fd5b506107d4600480360381019080803573ffffffffffffffffffffffffffffffffffffffff1690602001909291905050506115de565b005b3480156107e257600080fd5b506107eb611733565b6040518082815260200191505060405180910390f35b6000600654905090565b6000600960009054906101000a900460ff16905090565b600030905090565b60003073ffffffffffffffffffffffffffffffffffffffff1631905090565b6000600c54905090565b6000809054906101000a900473ffffffffffffffffffffffffffffffffffffffff1673ffffffffffffffffffffffffffffffffffffffff163373ffffffffffffffffffffffffffffffffffffffff161415156108ae57600080fd5b6000600a54141515156108c057600080fd5b8060058190555050565b6000809054906101000a900473ffffffffffffffffffffffffffffffffffffffff1673ffffffffffffffffffffffffffffffffffffffff163373ffffffffffffffffffffffffffffffffffffffff1614151561092557600080fd5b6000600a541415151561093757600080fd5b8060068190555050565b60126020528060005260406000206000915090505481565b600d6020528060005260406000206000915090508060000154908060010154908060020154905083565b60116020528060005260406000206000915090505481565b6013818154811015156109aa57fe5b906000526020600020016000915054906101000a900473ffffffffffffffffffffffffffffffffffffffff1681565b6000600154905090565b6000806000806000806000806000600a5414151515610a6a576040517f08c379a000000000000000000000000000000000000000000000000000000000815260040180806020018281038252601d8152602001807f54686973206973206e6f7420612062657474696e6720706572696f642e00000081525060200191505060405180910390fd5b6001543410151515610ae4576040517f08c379a00000000000000000000000000000000000000000000000000000000081526004018080602001828103825260188152602001807f436865636b207468652062657474696e672076616c75652e000000000000000081525060200191505060405180910390fd5b600154600e60003373ffffffffffffffffffffffffffffffffffffffff1673ffffffffffffffffffffffffffffffffffffffff1681526020019081526020016000206000828254019250508190555060103390806001815401808255809150509060018203906000526020600020016000909192909190916101000a81548173ffffffffffffffffffffffffffffffffffffffff021916908373ffffffffffffffffffffffffffffffffffffffff16021790555050600154340397506000881115610bf1573373ffffffffffffffffffffffffffffffffffffffff166108fc899081150290604051600060405180830381858888f19350505050158015610bef573d6000803e3d6000fd5b505b600b54891496508615610e23573073ffffffffffffffffffffffffffffffffffffffff16319550600286811515610c2457fe5b049450848603935060138054905092508284811515610c3f57fe5b0491503373ffffffffffffffffffffffffffffffffffffffff166108fc869081150290604051600060405180830381858888f19350505050158015610c88573d6000803e3d6000fd5b50606060405190810160405280600854815260200142815260200187815250600d60003373ffffffffffffffffffffffffffffffffffffffff1673ffffffffffffffffffffffffffffffffffffffff1681526020019081526020016000206000820151816000015560208201518160010155604082015181600201559050507f24f0fd24923e4709397160fd2d73547b4909eda7d9a46b14ae493d6d7d1783b133600b5487604051808473ffffffffffffffffffffffffffffffffffffffff1673ffffffffffffffffffffffffffffffffffffffff168152602001838152602001828152602001935050505060405180910390a1600090505b82811015610e1657601381815481101515610d9857fe5b9060005260206000200160009054906101000a900473ffffffffffffffffffffffffffffffffffffffff1673ffffffffffffffffffffffffffffffffffffffff166108fc839081150290604051600060405180830381858888f19350505050158015610e08573d6000803e3d6000fd5b508080600101915050610d81565b610e1e61173d565b610e95565b610e2b611954565b6001819055507fb7d130e59ce2d673030116a965b2ef42f68547155234b2a8762c19711831d23633604051808273ffffffffffffffffffffffffffffffffffffffff1673ffffffffffffffffffffffffffffffffffffffff16815260200191505060405180910390a15b505050505050505050565b60606013805480602002602001604051908101604052809291908181526020018280548015610f2457602002820191906000526020600020905b8160009054906101000a900473ffffffffffffffffffffffffffffffffffffffff1673ffffffffffffffffffffffffffffffffffffffff1681526020019060010190808311610eda575b5050505050905090565b6000809054906101000a900473ffffffffffffffffffffffffffffffffffffffff1681565b6000809054906101000a900473ffffffffffffffffffffffffffffffffffffffff1673ffffffffffffffffffffffffffffffffffffffff163373ffffffffffffffffffffffffffffffffffffffff16141515610fae57600080fd5b6000600a5414151515611029576040517f08c379a000000000000000000000000000000000000000000000000000000000815260040180806020018281038252601d8152602001807f54686973206973206e6f7420612062657474696e6720706572696f642e00000081525060200191505060405180910390fd5b80600c8190555050565b6000809054906101000a900473ffffffffffffffffffffffffffffffffffffffff1673ffffffffffffffffffffffffffffffffffffffff163373ffffffffffffffffffffffffffffffffffffffff1614151561108e57600080fd5b8060078190555050565b6010818154811015156110a757fe5b906000526020600020016000915054906101000a900473ffffffffffffffffffffffffffffffffffffffff1681565b6000600454905090565b6000600754905090565b600e6020528060005260406000206000915090505481565b600f6020528060005260406000206000915090505481565b6060601080548060200260200160405190810160405280929190818152602001828054801561119e57602002820191906000526020600020905b8160009054906101000a900473ffffffffffffffffffffffffffffffffffffffff1673ffffffffffffffffffffffffffffffffffffffff1681526020019060010190808311611154575b5050505050905090565b600080600a541415151561124a576040517f08c379a00000000000000000000000000000000000000000000000000000000081526004018080602001828103825260218152602001807f54686973206973206e6f7420616e20696e766573746d656e7420706572696f6481526020017f2e0000000000000000000000000000000000000000000000000000000000000081525060400191505060405180910390fd5b60065434101515156112ea576040517f08c379a00000000000000000000000000000000000000000000000000000000081526004018080602001828103825260298152602001807f436865636b2074686520696e766573746d656e742076616c7565206f6620746881526020017f697320726f756e642e000000000000000000000000000000000000000000000081525060400191505060405180910390fd5b6000601160003373ffffffffffffffffffffffffffffffffffffffff1673ffffffffffffffffffffffffffffffffffffffff168152602001908152602001600020541415156113c7576040517f08c379a00000000000000000000000000000000000000000000000000000000081526004018080602001828103825260308152602001807f5468697320616464726573732068617320616c726561647920696e766573746581526020017f6420696e207468697320726f756e642e0000000000000000000000000000000081525060400191505060405180910390fd5b600654601160003373ffffffffffffffffffffffffffffffffffffffff1673ffffffffffffffffffffffffffffffffffffffff1681526020019081526020016000206000828254019250508190555060133390806001815401808255809150509060018203906000526020600020016000909192909190916101000a81548173ffffffffffffffffffffffffffffffffffffffff021916908373ffffffffffffffffffffffffffffffffffffffff160217905550506006543403905060008111156114d4573373ffffffffffffffffffffffffffffffffffffffff166108fc829081150290604051600060405180830381858888f193505050501580156114d2573d6000803e3d6000fd5b505b7fd90d253a9de34d2fdd5a75ae49ea17fcb43af32fc8ea08cc6d2341991dd3872e333073ffffffffffffffffffffffffffffffffffffffff1631604051808373ffffffffffffffffffffffffffffffffffffffff1673ffffffffffffffffffffffffffffffffffffffff1681526020018281526020019250505060405180910390a14260045410801561157f57506007543073ffffffffffffffffffffffffffffffffffffffff1631115b156115db5761158c611993565b7f12333b322723ec26360eb708b341801ecca576387b55caa77d6e408107d2c70f3073ffffffffffffffffffffffffffffffffffffffff16316040518082815260200191505060405180910390a15b50565b6000809054906101000a900473ffffffffffffffffffffffffffffffffffffffff1673ffffffffffffffffffffffffffffffffffffffff163373ffffffffffffffffffffffffffffffffffffffff1614151561163957600080fd5b600073ffffffffffffffffffffffffffffffffffffffff168173ffffffffffffffffffffffffffffffffffffffff161415151561167557600080fd5b8073ffffffffffffffffffffffffffffffffffffffff166000809054906101000a900473ffffffffffffffffffffffffffffffffffffffff1673ffffffffffffffffffffffffffffffffffffffff167f8be0079c531659141344cd1fd0a4f28419497f9722a3daafe3b4186f6b6457e060405160405180910390a3806000806101000a81548173ffffffffffffffffffffffffffffffffffffffff021916908373ffffffffffffffffffffffffffffffffffffffff16021790555050565b6000600554905090565b600080600a81905550426003819055506000600960006101000a81548160ff0219169083600181111561176c57fe5b021790555060009050600090505b601380549050811015611810576012600060138381548110151561179a57fe5b9060005260206000200160009054906101000a900473ffffffffffffffffffffffffffffffffffffffff1673ffffffffffffffffffffffffffffffffffffffff1673ffffffffffffffffffffffffffffffffffffffff16815260200190815260200160002060009055808060010191505061177a565b6013600061181e91906119de565b600090505b6010805490508110156118b957600f600060108381548110151561184357fe5b9060005260206000200160009054906101000a900473ffffffffffffffffffffffffffffffffffffffff1673ffffffffffffffffffffffffffffffffffffffff1673ffffffffffffffffffffffffffffffffffffffff168152602001908152602001600020600090558080600101915050611823565b601060006118c791906119de565b60055460035401600481905550600c54600a024233600854604051808481526020018373ffffffffffffffffffffffffffffffffffffffff1673ffffffffffffffffffffffffffffffffffffffff166c01000000000000000000000000028152601401828152602001935050505060405180910390206001900481151561194a57fe5b06600b8190555050565b6000600a600254600c54600a0a0281151561196b57fe5b043073ffffffffffffffffffffffffffffffffffffffff163181151561198d57fe5b04905090565b6001600960006101000a81548160ff021916908360018111156119b257fe5b021790555042600a81905550600060038190555060006004819055506119d6611954565b600181905550565b50805460008255906000526020600020908101906119fc91906119ff565b50565b611a2191905b80821115611a1d576000816000905550600101611a05565b5090565b905600a165627a7a723058205c15a167e34e4a8aaeee92a42c18a472a3cebc816baf4ad8be02c0ebb297e43b0029",
  "source": "pragma solidity ^0.4.21;\n\nimport 'zeppelin-solidity/contracts/ownership/Ownable.sol';\n\ncontract Treasure is Ownable {\n    uint bettingPrice;\n    uint bettingRate; // 1-10\n\n    uint investStartedAt;\n    uint investExpireAt;\n    uint investPeriodInSeconds;\n    uint investPricePerAddress;\n    uint minimumWinningReward;\n\n    uint round;\n    enum Status {INVESTING, BETTING}\n\n    Status currentState;\n    uint gameStartedAt;\n\n\n    uint winningNumber;\n    uint winningNumberDigits;\n\n    struct Reward {\n        uint round;\n        uint date;\n        uint amount;\n    }\n\n    mapping(address => Reward) public winners;\n\n    mapping(address => uint) public hunters;\n    mapping(address => uint) public currentHunters;\n    address[] public currentHunterAddresses;\n    mapping(address => uint) public investors;\n    mapping(address => uint) public currentInvestors;\n    address[] public currentInvestorAddresses;\n\n    event Bet(address _hunter);\n    event Invest(address _investor, uint _reward);\n    event StartGame(uint _reward);\n    event FinishGame(address _hunter, uint _winningNumber, uint _reward);\n\n    constructor() public {\n        round = 1;\n        winningNumberDigits = 3;\n        investPeriodInSeconds = 60;\n        bettingRate=5;\n        minimumWinningReward= 0.005 ether;\n        investPricePerAddress = minimumWinningReward / 3;\n        bettingPrice = 0;\n        gameStartedAt = 0;\n        initGame();\n    }\n\n    modifier inBetting() {\n        require(gameStartedAt != 0, \"This is not a betting period.\");\n        _;\n    }\n\n    modifier inInvesting() {\n        require(gameStartedAt != 0, \"This is not an investment period.\");\n        _;\n    }\n\n    modifier investOncePerRound() {\n        require(investors[msg.sender] == 0, \"This address has already invested in this round.\");\n        _;\n    }\n\n    modifier enoughInvestValue() {\n        require(msg.value >= investPricePerAddress, \"Check the investment value of this round.\");\n        _;\n    }\n\n    modifier enoughBetValue(){\n        require(msg.value >= bettingPrice, \"Check the betting value.\");\n        _;\n    }\n\n\n    function initGame() private {\n        gameStartedAt = 0;\n        investStartedAt = now;\n        currentState = Status.INVESTING;\n        uint i=0;\n        for(i=0; i <currentInvestorAddresses.length;i++){\n            delete currentInvestors[currentInvestorAddresses[i]];\n        }\n        delete currentInvestorAddresses;\n\n        for(i=0; i <currentHunterAddresses.length;i++){\n            delete currentHunters[currentHunterAddresses[i]];\n        }\n        delete currentHunterAddresses;\n\n        investExpireAt = investStartedAt + investPeriodInSeconds;\n        winningNumber = uint(keccak256(now, msg.sender, round)) % (10 * winningNumberDigits);\n    }\n\n    //  bettingPrice = Reward/10**winningNumberDigits*bettingRate\n    function startGame() private {\n        currentState = Status.BETTING;\n        gameStartedAt = now;\n        investStartedAt = 0;\n        investExpireAt = 0;\n        bettingPrice = getNewBettingPrice();\n    }\n\n    function finishGame() private {\n        initGame();\n    }\n\n    function getBettingPrice() public view returns (uint){\n        return bettingPrice;\n    }\n\n    function getNewBettingPrice() private view returns(uint){\n        return (address(this).balance)/((10**winningNumberDigits)*bettingRate/10);\n    }\n\n    function getWinningNumberDigits() public view returns (uint){\n        return winningNumberDigits;\n    }\n\n    function setWinningNumberDigits(uint _digits) external onlyOwner inBetting {\n        winningNumberDigits = _digits;\n    }\n\n    function getInvestPeriod() public view returns (uint){\n        return investPeriodInSeconds;\n    }\n\n    function getInvestExpireAt() public view returns (uint){\n        return investExpireAt;\n    }\n\n    function setInvestPeriod(uint _inSeconds) external onlyOwner {\n        require(gameStartedAt != 0);\n\n        investPeriodInSeconds = _inSeconds;\n    }\n\n    function getInvestPrice() public view returns (uint) {\n        return investPricePerAddress;\n    }\n\n    function setInvestPricePerAddress(uint _price) external onlyOwner {\n        require(gameStartedAt != 0);\n\n        investPricePerAddress = _price;\n    }\n\n    function getHunterAddresses() public view returns (address[]){\n        return currentHunterAddresses;\n    }\n\n    function getInvestorAddresses() public view returns (address[]){\n        return currentInvestorAddresses;\n    }\n\n    function getMinimumWinningReward() public view returns (uint) {\n        return minimumWinningReward;\n    }\n\n    function setMinimumWinningReward(uint _minimum) external onlyOwner {\n        minimumWinningReward = _minimum;\n    }\n\n    function getReward() public view returns (uint) {\n        return address(this).balance;\n    }\n\n    function getState() public view returns (Status) {\n        return currentState;\n    }\n\n    function getContractAddress() public view returns (address) {\n        return address(this);\n    }\n\n    function invest() payable public inInvesting enoughInvestValue investOncePerRound {\n        investors[msg.sender] += investPricePerAddress;\n        currentInvestorAddresses.push(msg.sender);\n\n        uint _overSentValue = msg.value - investPricePerAddress;\n        if (_overSentValue > 0) {\n            msg.sender.transfer(_overSentValue);\n        }\n\n        emit Invest(msg.sender, address(this).balance);\n\n        if (investExpireAt < now && address(this).balance > minimumWinningReward){\n\n            startGame();\n            emit StartGame(address(this).balance);\n        }\n    }\n\n    function bet(uint _guessingNumber) payable public inBetting enoughBetValue {\n        hunters[msg.sender] += bettingPrice;\n        currentHunterAddresses.push(msg.sender);\n\n        uint _overSentValue = msg.value - bettingPrice;\n        if (_overSentValue > 0) {\n            msg.sender.transfer(_overSentValue);\n        }\n\n        bool _won = _guessingNumber == winningNumber;\n        if (_won) {\n            uint _totalReward = address(this).balance;\n            uint _betterReward = _totalReward / 2;\n            uint _investorsReward = _totalReward - _betterReward;\n            uint _investorsCount = currentInvestorAddresses.length ;\n            uint _investorReward = _investorsReward / _investorsCount;\n            msg.sender.transfer(_betterReward);\n\n            winners[msg.sender] = Reward({amount : _totalReward, date : now, round : round});\n\n            emit FinishGame(msg.sender, winningNumber, _betterReward);\n\n            for (uint i = 0; i < _investorsCount; i++) {\n                currentInvestorAddresses[i].transfer(_investorReward);\n            }\n            initGame();\n        } else {\n            bettingPrice = getNewBettingPrice();\n\n            emit Bet(msg.sender);\n        }\n    }\n}",
  "sourcePath": "/Users/user/Workspace/treasure-hunter/contracts/Treasure.sol",
  "compiler": {
    "name": "solc",
    "version": "0.4.23+commit.124ca40d.Emscripten.clang"
  },
  "schemaVersion": "2.0.0",
  "updatedAt": "2018-04-30T09:53:46.277Z"
}