{
  "contractName": "Treasure",
  "abi": [
    {
      "constant": true,
      "inputs": [
        {
          "name": "",
          "type": "address"
        }
      ],
      "name": "hunters",
      "outputs": [
        {
          "name": "balance",
          "type": "uint256"
        },
        {
          "name": "accumulatedAmount",
          "type": "uint256"
        }
      ],
      "payable": false,
      "stateMutability": "view",
      "type": "function"
    },
    {
      "inputs": [],
      "payable": false,
      "stateMutability": "nonpayable",
      "type": "constructor"
    },
    {
      "anonymous": false,
      "inputs": [
        {
          "indexed": false,
          "name": "_hunter",
          "type": "address"
        },
        {
          "indexed": false,
          "name": "_amount",
          "type": "uint256"
        }
      ],
      "name": "Won",
      "type": "event"
    },
    {
      "constant": false,
      "inputs": [
        {
          "name": "randNonce",
          "type": "uint256"
        }
      ],
      "name": "reset",
      "outputs": [],
      "payable": false,
      "stateMutability": "nonpayable",
      "type": "function"
    },
    {
      "constant": true,
      "inputs": [
        {
          "name": "addr",
          "type": "address"
        }
      ],
      "name": "getClientBalance",
      "outputs": [
        {
          "name": "",
          "type": "uint256"
        }
      ],
      "payable": false,
      "stateMutability": "view",
      "type": "function"
    },
    {
      "constant": true,
      "inputs": [],
      "name": "getReward",
      "outputs": [
        {
          "name": "",
          "type": "uint256"
        }
      ],
      "payable": false,
      "stateMutability": "view",
      "type": "function"
    },
    {
      "constant": true,
      "inputs": [],
      "name": "getContractAddress",
      "outputs": [
        {
          "name": "",
          "type": "address"
        }
      ],
      "payable": false,
      "stateMutability": "view",
      "type": "function"
    },
    {
      "constant": false,
      "inputs": [
        {
          "name": "guess",
          "type": "uint256"
        }
      ],
      "name": "bet",
      "outputs": [],
      "payable": true,
      "stateMutability": "payable",
      "type": "function"
    }
  ],
  "bytecode": "0x6060604052341561000f57600080fd5b61002c60016100496401000000000261041d176401000000009004565b5060016103e74381151561003c57fe5b060160018190555061009e565b6000600182141561006357620f4240600081905550610094565b600282141561007c57633b9aca00600081905550610093565b60038214156100925764e8d4a510006000819055505b5b5b6000549050919050565b61049e806100ad6000396000f300606060405260043610610078576000357c0100000000000000000000000000000000000000000000000000000000900463ffffffff168063310bd74b1461007d57806332a2c5d0146100a05780633844e1c4146100f55780633d18b912146101425780637365870b1461016b578063bdafeb1814610183575b600080fd5b341561008857600080fd5b61009e60048080359060200190919050506101d7565b005b34156100ab57600080fd5b6100b3610251565b604051808273ffffffffffffffffffffffffffffffffffffffff1673ffffffffffffffffffffffffffffffffffffffff16815260200191505060405180910390f35b341561010057600080fd5b61012c600480803573ffffffffffffffffffffffffffffffffffffffff16906020019091905050610259565b6040518082815260200191505060405180910390f35b341561014d57600080fd5b61015561027a565b6040518082815260200191505060405180910390f35b6101816004808035906020019091905050610299565b005b341561018e57600080fd5b6101ba600480803573ffffffffffffffffffffffffffffffffffffffff169060200190919050506103f9565b604051808381526020018281526020019250505060405180910390f35b6064423383604051808481526020018373ffffffffffffffffffffffffffffffffffffffff1673ffffffffffffffffffffffffffffffffffffffff166c01000000000000000000000000028152601401828152602001935050505060405180910390206001900481151561024757fe5b0660018190555050565b600030905090565b60008173ffffffffffffffffffffffffffffffffffffffff16319050919050565b60003073ffffffffffffffffffffffffffffffffffffffff1631905090565b6000543373ffffffffffffffffffffffffffffffffffffffff16311115156102c057600080fd5b600054600260003373ffffffffffffffffffffffffffffffffffffffff1673ffffffffffffffffffffffffffffffffffffffff168152602001908152602001600020600101600082825401925050819055506001548114156103f6573373ffffffffffffffffffffffffffffffffffffffff166108fc3073ffffffffffffffffffffffffffffffffffffffff16319081150290604051600060405180830381858888f19350505050151561037357600080fd5b7f8b01f9dd0400d6a1e84369a5fb8f6033934856ffa8ebadd707dca302ab551695333073ffffffffffffffffffffffffffffffffffffffff1631604051808373ffffffffffffffffffffffffffffffffffffffff1673ffffffffffffffffffffffffffffffffffffffff1681526020018281526020019250505060405180910390a15b50565b60026020528060005260406000206000915090508060000154908060010154905082565b6000600182141561043757620f4240600081905550610468565b600282141561045057633b9aca00600081905550610467565b60038214156104665764e8d4a510006000819055505b5b5b60005490509190505600a165627a7a723058201475997544b068f6aaf9714537ab059a07505e6c2027e98dd3c0fd339bb1f7f30029",
  "source": "pragma solidity ^0.4.17;\n\ncontract Treasure {\n    uint bettingPrice;\n    uint winningNumber;\n    struct Hunter {\n        uint balance;\n        uint accumulatedAmount; // how much an user has spent for a game. \n    }\n\n    /* An address of user maps to the balance of the user */\n    mapping(address => Hunter) public hunters;\n\n    event Won(address _hunter, uint _amount);\n\n    // Contructor\n    function Treasure() public {\n        setLevelOfDifficulty(1);\n        winningNumber = block.number % 999 + 1;\n    }\n\n    // When restarting a game, the function must be invoked.\n    function reset(uint randNonce) public {\n        // Random\n        winningNumber = uint(keccak256(now, msg.sender, randNonce)) % 100;\n    }\n\n    function setLevelOfDifficulty(uint _level) private returns (uint) {\n        if (_level == 1)\n            bettingPrice = 1000000 wei;\n        else if (_level == 2)\n            bettingPrice = 1000000000 wei;\n        else if (_level == 3)\n            bettingPrice = 1000000000000 wei;\n        return bettingPrice;\n    }\n\n    function getClientBalance(address addr) public view returns(uint) {\n        return addr.balance;\n    }\n\n    function getReward() public view returns(uint) {\n        return address(this).balance;\n    }\n\n    function getContractAddress() public view returns(address) {\n        return address(this);\n    }\n\n    function bet(uint guess) payable public {\n        require(msg.sender.balance > bettingPrice);\n\n        hunters[msg.sender].accumulatedAmount += bettingPrice;\n\n        if (guess == winningNumber) {\n            //Send all money of the current contract to the winner\n            msg.sender.transfer(address(this).balance);\n            emit Won(msg.sender, address(this).balance);\n        }\n    }\n}",
  "sourcePath": "/Users/deukyeolchoe/projects/treasure-hunter/contracts/Treasure.sol",
  "compiler": {
    "name": "solc",
    "version": "0.4.21+commit.dfe3193c.Emscripten.clang"
  },
  "schemaVersion": "2.0.0",
  "updatedAt": "2018-04-18T12:17:54.262Z"
}