{
  "contractName": "Treasure",
  "abi": [
    {
      "constant": true,
      "inputs": [
        {
          "name": "",
          "type": "address"
        }
      ],
      "name": "currentInvestors",
      "outputs": [
        {
          "name": "",
          "type": "uint256"
        }
      ],
      "payable": false,
      "stateMutability": "view",
      "type": "function"
    },
    {
      "constant": true,
      "inputs": [
        {
          "name": "",
          "type": "address"
        }
      ],
      "name": "winners",
      "outputs": [
        {
          "name": "round",
          "type": "uint256"
        },
        {
          "name": "date",
          "type": "uint256"
        },
        {
          "name": "amount",
          "type": "uint256"
        }
      ],
      "payable": false,
      "stateMutability": "view",
      "type": "function"
    },
    {
      "constant": true,
      "inputs": [
        {
          "name": "",
          "type": "address"
        }
      ],
      "name": "investors",
      "outputs": [
        {
          "name": "",
          "type": "uint256"
        }
      ],
      "payable": false,
      "stateMutability": "view",
      "type": "function"
    },
    {
      "constant": true,
      "inputs": [
        {
          "name": "",
          "type": "uint256"
        }
      ],
      "name": "currentInvestorAddresses",
      "outputs": [
        {
          "name": "",
          "type": "address"
        }
      ],
      "payable": false,
      "stateMutability": "view",
      "type": "function"
    },
    {
      "constant": true,
      "inputs": [],
      "name": "owner",
      "outputs": [
        {
          "name": "",
          "type": "address"
        }
      ],
      "payable": false,
      "stateMutability": "view",
      "type": "function"
    },
    {
      "constant": true,
      "inputs": [
        {
          "name": "",
          "type": "uint256"
        }
      ],
      "name": "currentHunterAddresses",
      "outputs": [
        {
          "name": "",
          "type": "address"
        }
      ],
      "payable": false,
      "stateMutability": "view",
      "type": "function"
    },
    {
      "constant": true,
      "inputs": [
        {
          "name": "",
          "type": "address"
        }
      ],
      "name": "hunters",
      "outputs": [
        {
          "name": "",
          "type": "uint256"
        }
      ],
      "payable": false,
      "stateMutability": "view",
      "type": "function"
    },
    {
      "constant": true,
      "inputs": [
        {
          "name": "",
          "type": "address"
        }
      ],
      "name": "currentHunters",
      "outputs": [
        {
          "name": "",
          "type": "uint256"
        }
      ],
      "payable": false,
      "stateMutability": "view",
      "type": "function"
    },
    {
      "constant": false,
      "inputs": [
        {
          "name": "newOwner",
          "type": "address"
        }
      ],
      "name": "transferOwnership",
      "outputs": [],
      "payable": false,
      "stateMutability": "nonpayable",
      "type": "function"
    },
    {
      "inputs": [],
      "payable": false,
      "stateMutability": "nonpayable",
      "type": "constructor"
    },
    {
      "anonymous": false,
      "inputs": [
        {
          "indexed": false,
          "name": "_hunter",
          "type": "address"
        }
      ],
      "name": "Bet",
      "type": "event"
    },
    {
      "anonymous": false,
      "inputs": [
        {
          "indexed": false,
          "name": "_investor",
          "type": "address"
        },
        {
          "indexed": false,
          "name": "_reward",
          "type": "uint256"
        }
      ],
      "name": "Invest",
      "type": "event"
    },
    {
      "anonymous": false,
      "inputs": [
        {
          "indexed": false,
          "name": "_reward",
          "type": "uint256"
        }
      ],
      "name": "StartGame",
      "type": "event"
    },
    {
      "anonymous": false,
      "inputs": [
        {
          "indexed": false,
          "name": "_hunter",
          "type": "address"
        },
        {
          "indexed": false,
          "name": "_winningNumber",
          "type": "uint256"
        },
        {
          "indexed": false,
          "name": "_reward",
          "type": "uint256"
        }
      ],
      "name": "FinishGame",
      "type": "event"
    },
    {
      "anonymous": false,
      "inputs": [
        {
          "indexed": true,
          "name": "previousOwner",
          "type": "address"
        },
        {
          "indexed": true,
          "name": "newOwner",
          "type": "address"
        }
      ],
      "name": "OwnershipTransferred",
      "type": "event"
    },
    {
      "constant": true,
      "inputs": [],
      "name": "getBettingPrice",
      "outputs": [
        {
          "name": "",
          "type": "uint256"
        }
      ],
      "payable": false,
      "stateMutability": "view",
      "type": "function"
    },
    {
      "constant": true,
      "inputs": [],
      "name": "getWinningNumberDigits",
      "outputs": [
        {
          "name": "",
          "type": "uint256"
        }
      ],
      "payable": false,
      "stateMutability": "view",
      "type": "function"
    },
    {
      "constant": false,
      "inputs": [
        {
          "name": "_digits",
          "type": "uint256"
        }
      ],
      "name": "setWinningNumberDigits",
      "outputs": [],
      "payable": false,
      "stateMutability": "nonpayable",
      "type": "function"
    },
    {
      "constant": true,
      "inputs": [],
      "name": "getInvestPeriod",
      "outputs": [
        {
          "name": "",
          "type": "uint256"
        }
      ],
      "payable": false,
      "stateMutability": "view",
      "type": "function"
    },
    {
      "constant": true,
      "inputs": [],
      "name": "getInvestExpireAt",
      "outputs": [
        {
          "name": "",
          "type": "uint256"
        }
      ],
      "payable": false,
      "stateMutability": "view",
      "type": "function"
    },
    {
      "constant": false,
      "inputs": [
        {
          "name": "_inSeconds",
          "type": "uint256"
        }
      ],
      "name": "setInvestPeriod",
      "outputs": [],
      "payable": false,
      "stateMutability": "nonpayable",
      "type": "function"
    },
    {
      "constant": true,
      "inputs": [],
      "name": "getInvestPrice",
      "outputs": [
        {
          "name": "",
          "type": "uint256"
        }
      ],
      "payable": false,
      "stateMutability": "view",
      "type": "function"
    },
    {
      "constant": false,
      "inputs": [
        {
          "name": "_price",
          "type": "uint256"
        }
      ],
      "name": "setInvestPricePerAddress",
      "outputs": [],
      "payable": false,
      "stateMutability": "nonpayable",
      "type": "function"
    },
    {
      "constant": true,
      "inputs": [],
      "name": "getHunterAddresses",
      "outputs": [
        {
          "name": "",
          "type": "address[]"
        }
      ],
      "payable": false,
      "stateMutability": "view",
      "type": "function"
    },
    {
      "constant": true,
      "inputs": [],
      "name": "getInvestorAddresses",
      "outputs": [
        {
          "name": "",
          "type": "address[]"
        }
      ],
      "payable": false,
      "stateMutability": "view",
      "type": "function"
    },
    {
      "constant": true,
      "inputs": [
        {
          "name": "_addr",
          "type": "address"
        }
      ],
      "name": "getClientBalance",
      "outputs": [
        {
          "name": "",
          "type": "uint256"
        }
      ],
      "payable": false,
      "stateMutability": "view",
      "type": "function"
    },
    {
      "constant": true,
      "inputs": [],
      "name": "getMinimumWinningReward",
      "outputs": [
        {
          "name": "",
          "type": "uint256"
        }
      ],
      "payable": false,
      "stateMutability": "view",
      "type": "function"
    },
    {
      "constant": false,
      "inputs": [
        {
          "name": "_minimum",
          "type": "uint256"
        }
      ],
      "name": "setMinimumWinningReward",
      "outputs": [],
      "payable": false,
      "stateMutability": "nonpayable",
      "type": "function"
    },
    {
      "constant": true,
      "inputs": [],
      "name": "getReward",
      "outputs": [
        {
          "name": "",
          "type": "uint256"
        }
      ],
      "payable": false,
      "stateMutability": "view",
      "type": "function"
    },
    {
      "constant": true,
      "inputs": [],
      "name": "getState",
      "outputs": [
        {
          "name": "",
          "type": "uint8"
        }
      ],
      "payable": false,
      "stateMutability": "view",
      "type": "function"
    },
    {
      "constant": true,
      "inputs": [],
      "name": "getContractAddress",
      "outputs": [
        {
          "name": "",
          "type": "address"
        }
      ],
      "payable": false,
      "stateMutability": "view",
      "type": "function"
    },
    {
      "constant": false,
      "inputs": [],
      "name": "invest",
      "outputs": [],
      "payable": true,
      "stateMutability": "payable",
      "type": "function"
    },
    {
      "constant": false,
      "inputs": [
        {
          "name": "_guessingNumber",
          "type": "uint256"
        }
      ],
      "name": "bet",
      "outputs": [],
      "payable": true,
      "stateMutability": "payable",
      "type": "function"
    }
  ],
  "bytecode": "0x60806040523480156200001157600080fd5b50336000806101000a81548173ffffffffffffffffffffffffffffffffffffffff021916908373ffffffffffffffffffffffffffffffffffffffff16021790555060016008819055506003600c81905550603c60058190555060056002819055506611c37937e0800060078190555060036007548115156200008f57fe5b046006819055506000600181905550620000b7620000bd640100000000026401000000009004565b6200032b565b600080600a81905550426003819055506000600960006101000a81548160ff02191690836001811115620000ed57fe5b021790555060009050600090505b6013805490508110156200019457601260006013838154811015156200011d57fe5b9060005260206000200160009054906101000a900473ffffffffffffffffffffffffffffffffffffffff1673ffffffffffffffffffffffffffffffffffffffff1673ffffffffffffffffffffffffffffffffffffffff168152602001908152602001600020600090558080600101915050620000fb565b60136000620001a49190620002e0565b600090505b6010805490508110156200024257600f6000601083815481101515620001cb57fe5b9060005260206000200160009054906101000a900473ffffffffffffffffffffffffffffffffffffffff1673ffffffffffffffffffffffffffffffffffffffff1673ffffffffffffffffffffffffffffffffffffffff168152602001908152602001600020600090558080600101915050620001a9565b60106000620002529190620002e0565b60055460035401600481905550600c54600a024233600854604051808481526020018373ffffffffffffffffffffffffffffffffffffffff1673ffffffffffffffffffffffffffffffffffffffff166c010000000000000000000000000281526014018281526020019350505050604051809103902060019004811515620002d657fe5b06600b8190555050565b508054600082559060005260206000209081019062000300919062000303565b50565b6200032891905b80821115620003245760008160009055506001016200030a565b5090565b90565b611ad3806200033b6000396000f30060806040526004361061015f576000357c0100000000000000000000000000000000000000000000000000000000900463ffffffff168063029a7f8d146101645780631865c57d1461018f57806332a2c5d0146101c85780633844e1c41461021f5780633d18b912146102765780633dcdc7c7146102a15780634c8d7e58146102cc5780634e75e1b8146102f957806365aaa564146103265780636bd5450a1461037d5780636f7bc9be146103e25780636fcf30ee1461043957806371b804ee146104a65780637365870b146104d157806379d8e9cc146104f15780638da5cb5b1461055d5780638e8a842a146105b45780639c591bce146105e15780639fb6b9551461060e578063a28b10741461067b578063a89e0b25146106a6578063bdafeb18146106d1578063db7f7d1714610728578063e4158b831461077f578063e8b5e51f146107eb578063f2fde38b146107f5578063fd5f25c714610838575b600080fd5b34801561017057600080fd5b50610179610863565b6040518082815260200191505060405180910390f35b34801561019b57600080fd5b506101a461086d565b604051808260018111156101b457fe5b60ff16815260200191505060405180910390f35b3480156101d457600080fd5b506101dd610884565b604051808273ffffffffffffffffffffffffffffffffffffffff1673ffffffffffffffffffffffffffffffffffffffff16815260200191505060405180910390f35b34801561022b57600080fd5b50610260600480360381019080803573ffffffffffffffffffffffffffffffffffffffff16906020019092919050505061088c565b6040518082815260200191505060405180910390f35b34801561028257600080fd5b5061028b6108ad565b6040518082815260200191505060405180910390f35b3480156102ad57600080fd5b506102b66108cc565b6040518082815260200191505060405180910390f35b3480156102d857600080fd5b506102f7600480360381019080803590602001909291905050506108d6565b005b34801561030557600080fd5b506103246004803603810190808035906020019092919050505061094d565b005b34801561033257600080fd5b50610367600480360381019080803573ffffffffffffffffffffffffffffffffffffffff1690602001909291905050506109c4565b6040518082815260200191505060405180910390f35b34801561038957600080fd5b506103be600480360381019080803573ffffffffffffffffffffffffffffffffffffffff1690602001909291905050506109dc565b60405180848152602001838152602001828152602001935050505060405180910390f35b3480156103ee57600080fd5b50610423600480360381019080803573ffffffffffffffffffffffffffffffffffffffff169060200190929190505050610a06565b6040518082815260200191505060405180910390f35b34801561044557600080fd5b5061046460048036038101908080359060200190929190505050610a1e565b604051808273ffffffffffffffffffffffffffffffffffffffff1673ffffffffffffffffffffffffffffffffffffffff16815260200191505060405180910390f35b3480156104b257600080fd5b506104bb610a5c565b6040518082815260200191505060405180910390f35b6104ef60048036038101908080359060200190929190505050610a66565b005b3480156104fd57600080fd5b50610506610f23565b6040518080602001828103825283818151815260200191508051906020019060200280838360005b8381101561054957808201518184015260208101905061052e565b505050509050019250505060405180910390f35b34801561056957600080fd5b50610572610fb1565b604051808273ffffffffffffffffffffffffffffffffffffffff1673ffffffffffffffffffffffffffffffffffffffff16815260200191505060405180910390f35b3480156105c057600080fd5b506105df60048036038101908080359060200190929190505050610fd6565b005b3480156105ed57600080fd5b5061060c600480360381019080803590602001909291905050506110b6565b005b34801561061a57600080fd5b506106396004803603810190808035906020019092919050505061111b565b604051808273ffffffffffffffffffffffffffffffffffffffff1673ffffffffffffffffffffffffffffffffffffffff16815260200191505060405180910390f35b34801561068757600080fd5b50610690611159565b6040518082815260200191505060405180910390f35b3480156106b257600080fd5b506106bb611163565b6040518082815260200191505060405180910390f35b3480156106dd57600080fd5b50610712600480360381019080803573ffffffffffffffffffffffffffffffffffffffff16906020019092919050505061116d565b6040518082815260200191505060405180910390f35b34801561073457600080fd5b50610769600480360381019080803573ffffffffffffffffffffffffffffffffffffffff169060200190929190505050611185565b6040518082815260200191505060405180910390f35b34801561078b57600080fd5b5061079461119d565b6040518080602001828103825283818151815260200191508051906020019060200280838360005b838110156107d75780820151818401526020810190506107bc565b505050509050019250505060405180910390f35b6107f361122b565b005b34801561080157600080fd5b50610836600480360381019080803573ffffffffffffffffffffffffffffffffffffffff169060200190929190505050611661565b005b34801561084457600080fd5b5061084d6117b6565b6040518082815260200191505060405180910390f35b6000600654905090565b6000600960009054906101000a900460ff16905090565b600030905090565b60008173ffffffffffffffffffffffffffffffffffffffff16319050919050565b60003073ffffffffffffffffffffffffffffffffffffffff1631905090565b6000600c54905090565b6000809054906101000a900473ffffffffffffffffffffffffffffffffffffffff1673ffffffffffffffffffffffffffffffffffffffff163373ffffffffffffffffffffffffffffffffffffffff1614151561093157600080fd5b6000600a541415151561094357600080fd5b8060058190555050565b6000809054906101000a900473ffffffffffffffffffffffffffffffffffffffff1673ffffffffffffffffffffffffffffffffffffffff163373ffffffffffffffffffffffffffffffffffffffff161415156109a857600080fd5b6000600a54141515156109ba57600080fd5b8060068190555050565b60126020528060005260406000206000915090505481565b600d6020528060005260406000206000915090508060000154908060010154908060020154905083565b60116020528060005260406000206000915090505481565b601381815481101515610a2d57fe5b906000526020600020016000915054906101000a900473ffffffffffffffffffffffffffffffffffffffff1681565b6000600154905090565b6000806000806000806000806000600a5414151515610aed576040517f08c379a000000000000000000000000000000000000000000000000000000000815260040180806020018281038252601d8152602001807f54686973206973206e6f7420612062657474696e6720706572696f642e00000081525060200191505060405180910390fd5b6001543410151515610b67576040517f08c379a00000000000000000000000000000000000000000000000000000000081526004018080602001828103825260188152602001807f436865636b207468652062657474696e672076616c75652e000000000000000081525060200191505060405180910390fd5b600154600e60003373ffffffffffffffffffffffffffffffffffffffff1673ffffffffffffffffffffffffffffffffffffffff1681526020019081526020016000206000828254019250508190555060103390806001815401808255809150509060018203906000526020600020016000909192909190916101000a81548173ffffffffffffffffffffffffffffffffffffffff021916908373ffffffffffffffffffffffffffffffffffffffff16021790555050600154340397506000881115610c74573373ffffffffffffffffffffffffffffffffffffffff166108fc899081150290604051600060405180830381858888f19350505050158015610c72573d6000803e3d6000fd5b505b600b54891496508615610ea6573073ffffffffffffffffffffffffffffffffffffffff16319550600286811515610ca757fe5b049450848603935060138054905092508284811515610cc257fe5b0491503373ffffffffffffffffffffffffffffffffffffffff166108fc869081150290604051600060405180830381858888f19350505050158015610d0b573d6000803e3d6000fd5b50606060405190810160405280600854815260200142815260200187815250600d60003373ffffffffffffffffffffffffffffffffffffffff1673ffffffffffffffffffffffffffffffffffffffff1681526020019081526020016000206000820151816000015560208201518160010155604082015181600201559050507f24f0fd24923e4709397160fd2d73547b4909eda7d9a46b14ae493d6d7d1783b133600b5487604051808473ffffffffffffffffffffffffffffffffffffffff1673ffffffffffffffffffffffffffffffffffffffff168152602001838152602001828152602001935050505060405180910390a1600090505b82811015610e9957601381815481101515610e1b57fe5b9060005260206000200160009054906101000a900473ffffffffffffffffffffffffffffffffffffffff1673ffffffffffffffffffffffffffffffffffffffff166108fc839081150290604051600060405180830381858888f19350505050158015610e8b573d6000803e3d6000fd5b508080600101915050610e04565b610ea16117c0565b610f18565b610eae6119d7565b6001819055507fb7d130e59ce2d673030116a965b2ef42f68547155234b2a8762c19711831d23633604051808273ffffffffffffffffffffffffffffffffffffffff1673ffffffffffffffffffffffffffffffffffffffff16815260200191505060405180910390a15b505050505050505050565b60606013805480602002602001604051908101604052809291908181526020018280548015610fa757602002820191906000526020600020905b8160009054906101000a900473ffffffffffffffffffffffffffffffffffffffff1673ffffffffffffffffffffffffffffffffffffffff1681526020019060010190808311610f5d575b5050505050905090565b6000809054906101000a900473ffffffffffffffffffffffffffffffffffffffff1681565b6000809054906101000a900473ffffffffffffffffffffffffffffffffffffffff1673ffffffffffffffffffffffffffffffffffffffff163373ffffffffffffffffffffffffffffffffffffffff1614151561103157600080fd5b6000600a54141515156110ac576040517f08c379a000000000000000000000000000000000000000000000000000000000815260040180806020018281038252601d8152602001807f54686973206973206e6f7420612062657474696e6720706572696f642e00000081525060200191505060405180910390fd5b80600c8190555050565b6000809054906101000a900473ffffffffffffffffffffffffffffffffffffffff1673ffffffffffffffffffffffffffffffffffffffff163373ffffffffffffffffffffffffffffffffffffffff1614151561111157600080fd5b8060078190555050565b60108181548110151561112a57fe5b906000526020600020016000915054906101000a900473ffffffffffffffffffffffffffffffffffffffff1681565b6000600454905090565b6000600754905090565b600e6020528060005260406000206000915090505481565b600f6020528060005260406000206000915090505481565b6060601080548060200260200160405190810160405280929190818152602001828054801561122157602002820191906000526020600020905b8160009054906101000a900473ffffffffffffffffffffffffffffffffffffffff1673ffffffffffffffffffffffffffffffffffffffff16815260200190600101908083116111d7575b5050505050905090565b600080600a54141515156112cd576040517f08c379a00000000000000000000000000000000000000000000000000000000081526004018080602001828103825260218152602001807f54686973206973206e6f7420616e20696e766573746d656e7420706572696f6481526020017f2e0000000000000000000000000000000000000000000000000000000000000081525060400191505060405180910390fd5b600654341015151561136d576040517f08c379a00000000000000000000000000000000000000000000000000000000081526004018080602001828103825260298152602001807f436865636b2074686520696e766573746d656e742076616c7565206f6620746881526020017f697320726f756e642e000000000000000000000000000000000000000000000081525060400191505060405180910390fd5b6000601160003373ffffffffffffffffffffffffffffffffffffffff1673ffffffffffffffffffffffffffffffffffffffff1681526020019081526020016000205414151561144a576040517f08c379a00000000000000000000000000000000000000000000000000000000081526004018080602001828103825260308152602001807f5468697320616464726573732068617320616c726561647920696e766573746581526020017f6420696e207468697320726f756e642e0000000000000000000000000000000081525060400191505060405180910390fd5b600654601160003373ffffffffffffffffffffffffffffffffffffffff1673ffffffffffffffffffffffffffffffffffffffff1681526020019081526020016000206000828254019250508190555060133390806001815401808255809150509060018203906000526020600020016000909192909190916101000a81548173ffffffffffffffffffffffffffffffffffffffff021916908373ffffffffffffffffffffffffffffffffffffffff16021790555050600654340390506000811115611557573373ffffffffffffffffffffffffffffffffffffffff166108fc829081150290604051600060405180830381858888f19350505050158015611555573d6000803e3d6000fd5b505b7fd90d253a9de34d2fdd5a75ae49ea17fcb43af32fc8ea08cc6d2341991dd3872e333073ffffffffffffffffffffffffffffffffffffffff1631604051808373ffffffffffffffffffffffffffffffffffffffff1673ffffffffffffffffffffffffffffffffffffffff1681526020018281526020019250505060405180910390a14260045410801561160257506007543073ffffffffffffffffffffffffffffffffffffffff1631115b1561165e5761160f611a16565b7f12333b322723ec26360eb708b341801ecca576387b55caa77d6e408107d2c70f3073ffffffffffffffffffffffffffffffffffffffff16316040518082815260200191505060405180910390a15b50565b6000809054906101000a900473ffffffffffffffffffffffffffffffffffffffff1673ffffffffffffffffffffffffffffffffffffffff163373ffffffffffffffffffffffffffffffffffffffff161415156116bc57600080fd5b600073ffffffffffffffffffffffffffffffffffffffff168173ffffffffffffffffffffffffffffffffffffffff16141515156116f857600080fd5b8073ffffffffffffffffffffffffffffffffffffffff166000809054906101000a900473ffffffffffffffffffffffffffffffffffffffff1673ffffffffffffffffffffffffffffffffffffffff167f8be0079c531659141344cd1fd0a4f28419497f9722a3daafe3b4186f6b6457e060405160405180910390a3806000806101000a81548173ffffffffffffffffffffffffffffffffffffffff021916908373ffffffffffffffffffffffffffffffffffffffff16021790555050565b6000600554905090565b600080600a81905550426003819055506000600960006101000a81548160ff021916908360018111156117ef57fe5b021790555060009050600090505b601380549050811015611893576012600060138381548110151561181d57fe5b9060005260206000200160009054906101000a900473ffffffffffffffffffffffffffffffffffffffff1673ffffffffffffffffffffffffffffffffffffffff1673ffffffffffffffffffffffffffffffffffffffff1681526020019081526020016000206000905580806001019150506117fd565b601360006118a19190611a61565b600090505b60108054905081101561193c57600f60006010838154811015156118c657fe5b9060005260206000200160009054906101000a900473ffffffffffffffffffffffffffffffffffffffff1673ffffffffffffffffffffffffffffffffffffffff1673ffffffffffffffffffffffffffffffffffffffff1681526020019081526020016000206000905580806001019150506118a6565b6010600061194a9190611a61565b60055460035401600481905550600c54600a024233600854604051808481526020018373ffffffffffffffffffffffffffffffffffffffff1673ffffffffffffffffffffffffffffffffffffffff166c0100000000000000000000000002815260140182815260200193505050506040518091039020600190048115156119cd57fe5b06600b8190555050565b6000600a600254600c54600a0a028115156119ee57fe5b043073ffffffffffffffffffffffffffffffffffffffff1631811515611a1057fe5b04905090565b6001600960006101000a81548160ff02191690836001811115611a3557fe5b021790555042600a8190555060006003819055506000600481905550611a596119d7565b600181905550565b5080546000825590600052602060002090810190611a7f9190611a82565b50565b611aa491905b80821115611aa0576000816000905550600101611a88565b5090565b905600a165627a7a72305820e4866b4d1d9be584c152ec2ab57e3d8ff459aaab2b18913bc325c58953232b500029",
  "source": "pragma solidity ^0.4.21;\n\nimport 'zeppelin-solidity/contracts/ownership/Ownable.sol';\n\ncontract Treasure is Ownable {\n    uint bettingPrice;\n    uint bettingRate; // 1-10\n\n    uint investStartedAt;\n    uint investExpireAt;\n    uint investPeriodInSeconds;\n    uint investPricePerAddress;\n    uint minimumWinningReward;\n\n    uint round;\n    enum Status {INVESTING, BETTING}\n\n    Status currentState;\n    uint gameStartedAt;\n\n\n    uint winningNumber;\n    uint winningNumberDigits;\n\n    struct Reward {\n        uint round;\n        uint date;\n        uint amount;\n    }\n\n    mapping(address => Reward) public winners;\n\n    mapping(address => uint) public hunters;\n    mapping(address => uint) public currentHunters;\n    address[] public currentHunterAddresses;\n    mapping(address => uint) public investors;\n    mapping(address => uint) public currentInvestors;\n    address[] public currentInvestorAddresses;\n\n    event Bet(address _hunter);\n    event Invest(address _investor, uint _reward);\n    event StartGame(uint _reward);\n    event FinishGame(address _hunter, uint _winningNumber, uint _reward);\n\n    constructor() public {\n        round = 1;\n        winningNumberDigits = 3;\n        investPeriodInSeconds = 60;\n        bettingRate=5;\n        minimumWinningReward= 0.005 ether;\n        investPricePerAddress = minimumWinningReward / 3;\n        bettingPrice = 0;\n        initGame();\n    }\n\n    modifier inBetting() {\n        require(gameStartedAt != 0, \"This is not a betting period.\");\n        _;\n    }\n\n    modifier inInvesting() {\n        require(gameStartedAt != 0, \"This is not an investment period.\");\n        _;\n    }\n\n    modifier investOncePerRound() {\n        require(investors[msg.sender] == 0, \"This address has already invested in this round.\");\n        _;\n    }\n\n    modifier enoughInvestValue() {\n        require(msg.value >= investPricePerAddress, \"Check the investment value of this round.\");\n        _;\n    }\n\n    modifier enoughBetValue(){\n        require(msg.value >= bettingPrice, \"Check the betting value.\");\n        _;\n    }\n\n\n    function initGame() private {\n        gameStartedAt = 0;\n        investStartedAt = now;\n        currentState = Status.INVESTING;\n        uint i=0;\n        for(i=0; i <currentInvestorAddresses.length;i++){\n            delete currentInvestors[currentInvestorAddresses[i]];\n        }\n        delete currentInvestorAddresses;\n\n        for(i=0; i <currentHunterAddresses.length;i++){\n            delete currentHunters[currentHunterAddresses[i]];\n        }\n        delete currentHunterAddresses;\n\n        investExpireAt = investStartedAt + investPeriodInSeconds;\n        winningNumber = uint(keccak256(now, msg.sender, round)) % (10 * winningNumberDigits);\n    }\n\n    //  bettingPrice = Reward/10**winningNumberDigits*bettingRate\n    function startGame() private {\n        currentState = Status.BETTING;\n        gameStartedAt = now;\n        investStartedAt = 0;\n        investExpireAt = 0;\n        bettingPrice = getNewBettingPrice();\n    }\n\n    function finishGame() private {\n        initGame();\n    }\n\n    function getBettingPrice() public view returns (uint){\n        return bettingPrice;\n    }\n\n    function getNewBettingPrice() private view returns(uint){\n        return (address(this).balance)/((10**winningNumberDigits)*bettingRate/10);\n    }\n\n    function getWinningNumberDigits() public view returns (uint){\n        return winningNumberDigits;\n    }\n\n    function setWinningNumberDigits(uint _digits) external onlyOwner inBetting {\n        winningNumberDigits = _digits;\n    }\n\n    function getInvestPeriod() public view returns (uint){\n        return investPeriodInSeconds;\n    }\n\n    function getInvestExpireAt() public view returns (uint){\n        return investExpireAt;\n    }\n\n    function setInvestPeriod(uint _inSeconds) external onlyOwner {\n        require(gameStartedAt != 0);\n\n        investPeriodInSeconds = _inSeconds;\n    }\n\n    function getInvestPrice() public view returns (uint) {\n        return investPricePerAddress;\n    }\n\n    function setInvestPricePerAddress(uint _price) external onlyOwner {\n        require(gameStartedAt != 0);\n\n        investPricePerAddress = _price;\n    }\n\n    function getHunterAddresses() public view returns (address[]){\n        return currentHunterAddresses;\n    }\n\n    function getInvestorAddresses() public view returns (address[]){\n        return currentInvestorAddresses;\n    }\n\n    /* TODO:      . web3       . */\n    function getClientBalance(address _addr) public view returns (uint) {\n        return _addr.balance;\n    }\n\n    function getMinimumWinningReward() public view returns (uint) {\n        return minimumWinningReward;\n    }\n\n    function setMinimumWinningReward(uint _minimum) external onlyOwner {\n        minimumWinningReward = _minimum;\n    }\n\n    function getReward() public view returns (uint) {\n        return address(this).balance;\n    }\n\n    function getState() public view returns (Status) {\n        return currentState;\n    }\n\n    function getContractAddress() public view returns (address) {\n        return address(this);\n    }\n\n    function invest() payable public inInvesting enoughInvestValue investOncePerRound {\n        investors[msg.sender] += investPricePerAddress;\n        currentInvestorAddresses.push(msg.sender);\n\n        uint _overSentValue = msg.value - investPricePerAddress;\n        if (_overSentValue > 0) {\n            msg.sender.transfer(_overSentValue);\n        }\n\n        emit Invest(msg.sender, address(this).balance);\n\n        if (investExpireAt < now && address(this).balance > minimumWinningReward){\n\n            startGame();\n            emit StartGame(address(this).balance);\n        }\n    }\n\n    function bet(uint _guessingNumber) payable public inBetting enoughBetValue {\n        hunters[msg.sender] += bettingPrice;\n        currentHunterAddresses.push(msg.sender);\n\n        uint _overSentValue = msg.value - bettingPrice;\n        if (_overSentValue > 0) {\n            msg.sender.transfer(_overSentValue);\n        }\n\n        bool _won = _guessingNumber == winningNumber;\n        if (_won) {\n            uint _totalReward = address(this).balance;\n            uint _betterReward = _totalReward / 2;\n            uint _investorsReward = _totalReward - _betterReward;\n            uint _investorsCount = currentInvestorAddresses.length ;\n            uint _investorReward = _investorsReward / _investorsCount;\n            msg.sender.transfer(_betterReward);\n\n            winners[msg.sender] = Reward({amount : _totalReward, date : now, round : round});\n\n            emit FinishGame(msg.sender, winningNumber, _betterReward);\n\n            for (uint i = 0; i < _investorsCount; i++) {\n                currentInvestorAddresses[i].transfer(_investorReward);\n            }\n            initGame();\n        } else {\n            bettingPrice = getNewBettingPrice();\n\n            emit Bet(msg.sender);\n        }\n    }\n}",
  "sourcePath": "/Users/user/Workspace/treasure-hunter/contracts/Treasure.sol",
  "compiler": {
    "name": "solc",
    "version": "0.4.23+commit.124ca40d.Emscripten.clang"
  },
  "schemaVersion": "2.0.0",
  "updatedAt": "2018-04-30T07:29:35.477Z"
}