{
  "contractName": "Treasure",
  "abi": [
    {
      "constant": true,
      "inputs": [],
      "name": "creator",
      "outputs": [
        {
          "name": "",
          "type": "address"
        }
      ],
      "payable": false,
      "stateMutability": "view",
      "type": "function"
    },
    {
      "constant": true,
      "inputs": [
        {
          "name": "",
          "type": "address"
        }
      ],
      "name": "hunters",
      "outputs": [
        {
          "name": "balance",
          "type": "uint256"
        },
        {
          "name": "accumulatedAmount",
          "type": "uint256"
        }
      ],
      "payable": false,
      "stateMutability": "view",
      "type": "function"
    },
    {
      "inputs": [],
      "payable": false,
      "stateMutability": "nonpayable",
      "type": "constructor"
    },
    {
      "payable": true,
      "stateMutability": "payable",
      "type": "fallback"
    },
    {
      "anonymous": false,
      "inputs": [
        {
          "indexed": false,
          "name": "hunter",
          "type": "address"
        },
        {
          "indexed": false,
          "name": "amount",
          "type": "uint256"
        }
      ],
      "name": "Won",
      "type": "event"
    },
    {
      "anonymous": false,
      "inputs": [
        {
          "indexed": false,
          "name": "hunter",
          "type": "address"
        },
        {
          "indexed": false,
          "name": "amount",
          "type": "uint256"
        }
      ],
      "name": "Bet",
      "type": "event"
    },
    {
      "constant": false,
      "inputs": [
        {
          "name": "level",
          "type": "uint256"
        }
      ],
      "name": "setLevelOfDifficulty",
      "outputs": [
        {
          "name": "",
          "type": "uint256"
        }
      ],
      "payable": false,
      "stateMutability": "nonpayable",
      "type": "function"
    },
    {
      "constant": true,
      "inputs": [
        {
          "name": "addr",
          "type": "address"
        }
      ],
      "name": "getBalance",
      "outputs": [
        {
          "name": "",
          "type": "uint256"
        }
      ],
      "payable": false,
      "stateMutability": "view",
      "type": "function"
    },
    {
      "constant": true,
      "inputs": [],
      "name": "getReward",
      "outputs": [
        {
          "name": "",
          "type": "uint256"
        }
      ],
      "payable": false,
      "stateMutability": "view",
      "type": "function"
    },
    {
      "constant": true,
      "inputs": [],
      "name": "getAddress",
      "outputs": [
        {
          "name": "",
          "type": "address"
        }
      ],
      "payable": false,
      "stateMutability": "view",
      "type": "function"
    },
    {
      "constant": false,
      "inputs": [
        {
          "name": "guess",
          "type": "uint256"
        }
      ],
      "name": "bet",
      "outputs": [],
      "payable": true,
      "stateMutability": "payable",
      "type": "function"
    }
  ],
  "bytecode": "0x606060405273bd1df2c9c9a6744c11e8a1ac20e75a907aabfdd2600160006101000a81548173ffffffffffffffffffffffffffffffffffffffff021916908373ffffffffffffffffffffffffffffffffffffffff160217905550341561006457600080fd5b610081600161009e64010000000002610295176401000000009004565b5060016103e74381151561009157fe5b06016002819055506100f3565b600060018214156100b857620f42406000819055506100e9565b60028214156100d157633b9aca006000819055506100e8565b60038214156100e75764e8d4a510006000819055505b5b5b6000549050919050565b61035e806101026000396000f300606060405260043610610083576000357c0100000000000000000000000000000000000000000000000000000000900463ffffffff16806302d05d3f1461008557806338cc4831146100da5780633d18b9121461012f5780634dcd65f6146101585780637365870b1461018f578063bdafeb18146101a7578063f8b2cb4f146101fb575b005b341561009057600080fd5b610098610248565b604051808273ffffffffffffffffffffffffffffffffffffffff1673ffffffffffffffffffffffffffffffffffffffff16815260200191505060405180910390f35b34156100e557600080fd5b6100ed61026e565b604051808273ffffffffffffffffffffffffffffffffffffffff1673ffffffffffffffffffffffffffffffffffffffff16815260200191505060405180910390f35b341561013a57600080fd5b610142610276565b6040518082815260200191505060405180910390f35b341561016357600080fd5b6101796004808035906020019091905050610295565b6040518082815260200191505060405180910390f35b6101a560048080359060200190919050506102ea565b005b34156101b257600080fd5b6101de600480803573ffffffffffffffffffffffffffffffffffffffff169060200190919050506102ed565b604051808381526020018281526020019250505060405180910390f35b341561020657600080fd5b610232600480803573ffffffffffffffffffffffffffffffffffffffff16906020019091905050610311565b6040518082815260200191505060405180910390f35b600160009054906101000a900473ffffffffffffffffffffffffffffffffffffffff1681565b600030905090565b60003073ffffffffffffffffffffffffffffffffffffffff1631905090565b600060018214156102af57620f42406000819055506102e0565b60028214156102c857633b9aca006000819055506102df565b60038214156102de5764e8d4a510006000819055505b5b5b6000549050919050565b50565b60036020528060005260406000206000915090508060000154908060010154905082565b60008173ffffffffffffffffffffffffffffffffffffffff163190509190505600a165627a7a7230582089e6a9cfdfad651f7a8059f64d2bd94895b35e4184956105fdcb7b36a2c7e1ea0029",
  "source": "pragma solidity ^0.4.17;\n\ncontract Treasure {\n    uint bettingPrice;\n    address public creator = 0xBD1DF2C9C9A6744c11e8a1aC20e75A907AaBFdd2;\n    uint winningNumber;\n    struct Hunter {\n        uint balance;\n        uint accumulatedAmount; // how much an user has spent for a game. \n    }\n\n    /* An address of user maps to the balance of the user */\n    mapping(address => Hunter) public hunters;\n\n    event Won(address hunter, uint amount);\n    event Bet(address hunter, uint amount);\n\n    // Contructor\n    function Treasure() public {\n        setLevelOfDifficulty(1);\n        winningNumber = block.number % 999 + 1;\n    }\n\n    /* \n    * level 1 : betting price is 1,000,000 wei per game.\n    * level 2 : betting price is 1,000,000,000 wei per game (when one digits found).\n    * level 3 : betting price is 1,000,000,000,000 wei per game (when two digits found).\n    */\n    function setLevelOfDifficulty(uint level) public returns (uint){\n        if (level == 1)\n            bettingPrice = 1000000 wei;\n        else if (level == 2)\n            bettingPrice = 1000000000 wei;\n        else if (level == 3)\n            bettingPrice = 1000000000000 wei;\n        return bettingPrice;\n    }\n\n    function getBalance(address addr) public view returns(uint) {\n        return addr.balance;\n    }\n\n    function getReward() public view returns(uint) {\n        return address(this).balance;\n    }\n\n    function getAddress() public view returns(address) {\n        return address(this);\n    }\n\n    function bet(uint guess) payable public {\n//        require(hunters[msg.sender].balance > bettingPrice);\n\n//        hunters[msg.sender].accumulatedAmount += bettingPrice;\n        \n//        winningNumber = 111;\n\n//        if (guess == winningNumber) {\n            // Send all money of the current contract to the winner\n//            msg.sender.transfer(this.balance);\n            // emit Won(msg.sender, address(this).balance);\n//        } else {\n            // If wrong, send betting price to the current contract\n//        creator.transfer(bettingPrice);\n//        address(this).transfer(10 wei);\n//        }\n        return;\n    } \n\n    // Fallback: http://solidity.readthedocs.io/en/v0.4.21/contracts.html\n    // this function is executed whenever the contract receives plain Ether (without data). \n    // Additionally, in order to receive Ether, the fallback function must be marked payable. \n    // If no such function exists, the contract cannot receive Ether through regular transactions.\n    function() payable public {}\n}",
  "sourcePath": "/Users/user/Workspace/treasure-hunter/contracts/Treasure.sol",
  "compiler": {
    "name": "solc",
    "version": "0.4.21+commit.dfe3193c.Emscripten.clang"
  },
  "schemaVersion": "2.0.0",
  "updatedAt": "2018-04-11T11:58:13.696Z"
}