{
  "contractName": "Treasure",
  "abi": [
    {
      "constant": true,
      "inputs": [
        {
          "name": "",
          "type": "address"
        }
      ],
      "name": "currentInvestors",
      "outputs": [
        {
          "name": "",
          "type": "uint256"
        }
      ],
      "payable": false,
      "stateMutability": "view",
      "type": "function"
    },
    {
      "constant": true,
      "inputs": [
        {
          "name": "",
          "type": "address"
        }
      ],
      "name": "winners",
      "outputs": [
        {
          "name": "round",
          "type": "uint256"
        },
        {
          "name": "date",
          "type": "uint256"
        },
        {
          "name": "amount",
          "type": "uint256"
        }
      ],
      "payable": false,
      "stateMutability": "view",
      "type": "function"
    },
    {
      "constant": true,
      "inputs": [
        {
          "name": "",
          "type": "address"
        }
      ],
      "name": "investors",
      "outputs": [
        {
          "name": "",
          "type": "uint256"
        }
      ],
      "payable": false,
      "stateMutability": "view",
      "type": "function"
    },
    {
      "constant": true,
      "inputs": [
        {
          "name": "",
          "type": "uint256"
        }
      ],
      "name": "currentInvestorAddresses",
      "outputs": [
        {
          "name": "",
          "type": "address"
        }
      ],
      "payable": false,
      "stateMutability": "view",
      "type": "function"
    },
    {
      "constant": true,
      "inputs": [],
      "name": "owner",
      "outputs": [
        {
          "name": "",
          "type": "address"
        }
      ],
      "payable": false,
      "stateMutability": "view",
      "type": "function"
    },
    {
      "constant": true,
      "inputs": [
        {
          "name": "",
          "type": "uint256"
        }
      ],
      "name": "currentHunterAddresses",
      "outputs": [
        {
          "name": "",
          "type": "address"
        }
      ],
      "payable": false,
      "stateMutability": "view",
      "type": "function"
    },
    {
      "constant": true,
      "inputs": [
        {
          "name": "",
          "type": "address"
        }
      ],
      "name": "hunters",
      "outputs": [
        {
          "name": "",
          "type": "uint256"
        }
      ],
      "payable": false,
      "stateMutability": "view",
      "type": "function"
    },
    {
      "constant": true,
      "inputs": [
        {
          "name": "",
          "type": "address"
        }
      ],
      "name": "currentHunters",
      "outputs": [
        {
          "name": "",
          "type": "uint256"
        }
      ],
      "payable": false,
      "stateMutability": "view",
      "type": "function"
    },
    {
      "constant": false,
      "inputs": [
        {
          "name": "newOwner",
          "type": "address"
        }
      ],
      "name": "transferOwnership",
      "outputs": [],
      "payable": false,
      "stateMutability": "nonpayable",
      "type": "function"
    },
    {
      "inputs": [],
      "payable": false,
      "stateMutability": "nonpayable",
      "type": "constructor"
    },
    {
      "anonymous": false,
      "inputs": [
        {
          "indexed": false,
          "name": "_hunter",
          "type": "address"
        }
      ],
      "name": "Bet",
      "type": "event"
    },
    {
      "anonymous": false,
      "inputs": [
        {
          "indexed": false,
          "name": "_investor",
          "type": "address"
        },
        {
          "indexed": false,
          "name": "_reward",
          "type": "uint256"
        }
      ],
      "name": "Invest",
      "type": "event"
    },
    {
      "anonymous": false,
      "inputs": [
        {
          "indexed": false,
          "name": "_reward",
          "type": "uint256"
        }
      ],
      "name": "StartGame",
      "type": "event"
    },
    {
      "anonymous": false,
      "inputs": [
        {
          "indexed": false,
          "name": "_hunter",
          "type": "address"
        },
        {
          "indexed": false,
          "name": "_winningNumber",
          "type": "uint256"
        },
        {
          "indexed": false,
          "name": "_reward",
          "type": "uint256"
        }
      ],
      "name": "FinishGame",
      "type": "event"
    },
    {
      "anonymous": false,
      "inputs": [
        {
          "indexed": true,
          "name": "previousOwner",
          "type": "address"
        },
        {
          "indexed": true,
          "name": "newOwner",
          "type": "address"
        }
      ],
      "name": "OwnershipTransferred",
      "type": "event"
    },
    {
      "constant": true,
      "inputs": [],
      "name": "getBettingPrice",
      "outputs": [
        {
          "name": "",
          "type": "uint256"
        }
      ],
      "payable": false,
      "stateMutability": "view",
      "type": "function"
    },
    {
      "constant": true,
      "inputs": [],
      "name": "getWinningNumberDigits",
      "outputs": [
        {
          "name": "",
          "type": "uint256"
        }
      ],
      "payable": false,
      "stateMutability": "view",
      "type": "function"
    },
    {
      "constant": false,
      "inputs": [
        {
          "name": "_digits",
          "type": "uint256"
        }
      ],
      "name": "setWinningNumberDigits",
      "outputs": [],
      "payable": false,
      "stateMutability": "nonpayable",
      "type": "function"
    },
    {
      "constant": true,
      "inputs": [],
      "name": "getInvestPrice",
      "outputs": [
        {
          "name": "",
          "type": "uint256"
        }
      ],
      "payable": false,
      "stateMutability": "view",
      "type": "function"
    },
    {
      "constant": false,
      "inputs": [
        {
          "name": "_price",
          "type": "uint256"
        }
      ],
      "name": "setInvestPricePerAddress",
      "outputs": [],
      "payable": false,
      "stateMutability": "nonpayable",
      "type": "function"
    },
    {
      "constant": true,
      "inputs": [],
      "name": "getHunterAddresses",
      "outputs": [
        {
          "name": "",
          "type": "address[]"
        }
      ],
      "payable": false,
      "stateMutability": "view",
      "type": "function"
    },
    {
      "constant": true,
      "inputs": [],
      "name": "getInvestorAddresses",
      "outputs": [
        {
          "name": "",
          "type": "address[]"
        }
      ],
      "payable": false,
      "stateMutability": "view",
      "type": "function"
    },
    {
      "constant": true,
      "inputs": [],
      "name": "getMinimumWinningReward",
      "outputs": [
        {
          "name": "",
          "type": "uint256"
        }
      ],
      "payable": false,
      "stateMutability": "view",
      "type": "function"
    },
    {
      "constant": false,
      "inputs": [
        {
          "name": "_minimum",
          "type": "uint256"
        }
      ],
      "name": "setMinimumWinningReward",
      "outputs": [],
      "payable": false,
      "stateMutability": "nonpayable",
      "type": "function"
    },
    {
      "constant": true,
      "inputs": [],
      "name": "getReward",
      "outputs": [
        {
          "name": "",
          "type": "uint256"
        }
      ],
      "payable": false,
      "stateMutability": "view",
      "type": "function"
    },
    {
      "constant": true,
      "inputs": [],
      "name": "getState",
      "outputs": [
        {
          "name": "",
          "type": "uint8"
        }
      ],
      "payable": false,
      "stateMutability": "view",
      "type": "function"
    },
    {
      "constant": true,
      "inputs": [],
      "name": "getContractAddress",
      "outputs": [
        {
          "name": "",
          "type": "address"
        }
      ],
      "payable": false,
      "stateMutability": "view",
      "type": "function"
    },
    {
      "constant": false,
      "inputs": [],
      "name": "invest",
      "outputs": [],
      "payable": true,
      "stateMutability": "payable",
      "type": "function"
    },
    {
      "constant": false,
      "inputs": [
        {
          "name": "_guessingNumber",
          "type": "uint256"
        }
      ],
      "name": "bet",
      "outputs": [],
      "payable": true,
      "stateMutability": "payable",
      "type": "function"
    }
  ],
  "bytecode": "0x60806040523480156200001157600080fd5b50336000806101000a81548173ffffffffffffffffffffffffffffffffffffffff021916908373ffffffffffffffffffffffffffffffffffffffff160217905550600160058190555060036009819055506005600281905550670de0b6b3a764000060048190555060036004548115156200008857fe5b0460038190555060006001819055506000600781905550620000b8620000be640100000000026401000000009004565b62000318565b6000806007819055506000600660006101000a81548160ff02191690836001811115620000e757fe5b021790555060009050600090505b6010805490508110156200018e57600f60006010838154811015156200011757fe5b9060005260206000200160009054906101000a900473ffffffffffffffffffffffffffffffffffffffff1673ffffffffffffffffffffffffffffffffffffffff1673ffffffffffffffffffffffffffffffffffffffff168152602001908152602001600020600090558080600101915050620000f5565b601060006200019e9190620002cd565b600090505b600d805490508110156200023c57600c6000600d83815481101515620001c557fe5b9060005260206000200160009054906101000a900473ffffffffffffffffffffffffffffffffffffffff1673ffffffffffffffffffffffffffffffffffffffff1673ffffffffffffffffffffffffffffffffffffffff168152602001908152602001600020600090558080600101915050620001a3565b600d60006200024c9190620002cd565b600954600a024233600554604051808481526020018373ffffffffffffffffffffffffffffffffffffffff1673ffffffffffffffffffffffffffffffffffffffff166c010000000000000000000000000281526014018281526020019350505050604051809103902060019004811515620002c357fe5b0660088190555050565b5080546000825590600052602060002090810190620002ed9190620002f0565b50565b6200031591905b8082111562000311576000816000905550600101620002f7565b5090565b90565b61181280620003286000396000f300608060405260043610610133576000357c0100000000000000000000000000000000000000000000000000000000900463ffffffff168063029a7f8d146101385780631865c57d1461016357806332a2c5d01461019c5780633d18b912146101f35780633dcdc7c71461021e5780634e75e1b81461024957806365aaa564146102765780636bd5450a146102cd5780636f7bc9be146103325780636fcf30ee1461038957806371b804ee146103f65780637365870b1461042157806379d8e9cc146104415780638da5cb5b146104ad5780638e8a842a146105045780639c591bce146105315780639fb6b9551461055e578063a89e0b25146105cb578063bdafeb18146105f6578063db7f7d171461064d578063e4158b83146106a4578063e8b5e51f14610710578063f2fde38b1461071a575b600080fd5b34801561014457600080fd5b5061014d61075d565b6040518082815260200191505060405180910390f35b34801561016f57600080fd5b50610178610767565b6040518082600181111561018857fe5b60ff16815260200191505060405180910390f35b3480156101a857600080fd5b506101b161077e565b604051808273ffffffffffffffffffffffffffffffffffffffff1673ffffffffffffffffffffffffffffffffffffffff16815260200191505060405180910390f35b3480156101ff57600080fd5b50610208610786565b6040518082815260200191505060405180910390f35b34801561022a57600080fd5b506102336107a5565b6040518082815260200191505060405180910390f35b34801561025557600080fd5b50610274600480360381019080803590602001909291905050506107af565b005b34801561028257600080fd5b506102b7600480360381019080803573ffffffffffffffffffffffffffffffffffffffff169060200190929190505050610826565b6040518082815260200191505060405180910390f35b3480156102d957600080fd5b5061030e600480360381019080803573ffffffffffffffffffffffffffffffffffffffff16906020019092919050505061083e565b60405180848152602001838152602001828152602001935050505060405180910390f35b34801561033e57600080fd5b50610373600480360381019080803573ffffffffffffffffffffffffffffffffffffffff169060200190929190505050610868565b6040518082815260200191505060405180910390f35b34801561039557600080fd5b506103b460048036038101908080359060200190929190505050610880565b604051808273ffffffffffffffffffffffffffffffffffffffff1673ffffffffffffffffffffffffffffffffffffffff16815260200191505060405180910390f35b34801561040257600080fd5b5061040b6108be565b6040518082815260200191505060405180910390f35b61043f600480360381019080803590602001909291905050506108c8565b005b34801561044d57600080fd5b50610456610d85565b6040518080602001828103825283818151815260200191508051906020019060200280838360005b8381101561049957808201518184015260208101905061047e565b505050509050019250505060405180910390f35b3480156104b957600080fd5b506104c2610e13565b604051808273ffffffffffffffffffffffffffffffffffffffff1673ffffffffffffffffffffffffffffffffffffffff16815260200191505060405180910390f35b34801561051057600080fd5b5061052f60048036038101908080359060200190929190505050610e38565b005b34801561053d57600080fd5b5061055c60048036038101908080359060200190929190505050610f18565b005b34801561056a57600080fd5b5061058960048036038101908080359060200190929190505050610f7d565b604051808273ffffffffffffffffffffffffffffffffffffffff1673ffffffffffffffffffffffffffffffffffffffff16815260200191505060405180910390f35b3480156105d757600080fd5b506105e0610fbb565b6040518082815260200191505060405180910390f35b34801561060257600080fd5b50610637600480360381019080803573ffffffffffffffffffffffffffffffffffffffff169060200190929190505050610fc5565b6040518082815260200191505060405180910390f35b34801561065957600080fd5b5061068e600480360381019080803573ffffffffffffffffffffffffffffffffffffffff169060200190929190505050610fdd565b6040518082815260200191505060405180910390f35b3480156106b057600080fd5b506106b9610ff5565b6040518080602001828103825283818151815260200191508051906020019060200280838360005b838110156106fc5780820151818401526020810190506106e1565b505050509050019250505060405180910390f35b610718611083565b005b34801561072657600080fd5b5061075b600480360381019080803573ffffffffffffffffffffffffffffffffffffffff1690602001909291905050506113ce565b005b6000600354905090565b6000600660009054906101000a900460ff16905090565b600030905090565b60003073ffffffffffffffffffffffffffffffffffffffff1631905090565b6000600954905090565b6000809054906101000a900473ffffffffffffffffffffffffffffffffffffffff1673ffffffffffffffffffffffffffffffffffffffff163373ffffffffffffffffffffffffffffffffffffffff1614151561080a57600080fd5b60006007541415151561081c57600080fd5b8060038190555050565b600f6020528060005260406000206000915090505481565b600a6020528060005260406000206000915090508060000154908060010154908060020154905083565b600e6020528060005260406000206000915090505481565b60108181548110151561088f57fe5b906000526020600020016000915054906101000a900473ffffffffffffffffffffffffffffffffffffffff1681565b6000600154905090565b60008060008060008060008060006007541415151561094f576040517f08c379a000000000000000000000000000000000000000000000000000000000815260040180806020018281038252601d8152602001807f54686973206973206e6f7420612062657474696e6720706572696f642e00000081525060200191505060405180910390fd5b60015434101515156109c9576040517f08c379a00000000000000000000000000000000000000000000000000000000081526004018080602001828103825260188152602001807f436865636b207468652062657474696e672076616c75652e000000000000000081525060200191505060405180910390fd5b600154600b60003373ffffffffffffffffffffffffffffffffffffffff1673ffffffffffffffffffffffffffffffffffffffff16815260200190815260200160002060008282540192505081905550600d3390806001815401808255809150509060018203906000526020600020016000909192909190916101000a81548173ffffffffffffffffffffffffffffffffffffffff021916908373ffffffffffffffffffffffffffffffffffffffff16021790555050600154340397506000881115610ad6573373ffffffffffffffffffffffffffffffffffffffff166108fc899081150290604051600060405180830381858888f19350505050158015610ad4573d6000803e3d6000fd5b505b600854891496508615610d08573073ffffffffffffffffffffffffffffffffffffffff16319550600286811515610b0957fe5b049450848603935060108054905092508284811515610b2457fe5b0491503373ffffffffffffffffffffffffffffffffffffffff166108fc869081150290604051600060405180830381858888f19350505050158015610b6d573d6000803e3d6000fd5b50606060405190810160405280600554815260200142815260200187815250600a60003373ffffffffffffffffffffffffffffffffffffffff1673ffffffffffffffffffffffffffffffffffffffff1681526020019081526020016000206000820151816000015560208201518160010155604082015181600201559050507f24f0fd24923e4709397160fd2d73547b4909eda7d9a46b14ae493d6d7d1783b13360085487604051808473ffffffffffffffffffffffffffffffffffffffff1673ffffffffffffffffffffffffffffffffffffffff168152602001838152602001828152602001935050505060405180910390a1600090505b82811015610cfb57601081815481101515610c7d57fe5b9060005260206000200160009054906101000a900473ffffffffffffffffffffffffffffffffffffffff1673ffffffffffffffffffffffffffffffffffffffff166108fc839081150290604051600060405180830381858888f19350505050158015610ced573d6000803e3d6000fd5b508080600101915050610c66565b610d03611523565b610d7a565b610d10611726565b6001819055507fb7d130e59ce2d673030116a965b2ef42f68547155234b2a8762c19711831d23633604051808273ffffffffffffffffffffffffffffffffffffffff1673ffffffffffffffffffffffffffffffffffffffff16815260200191505060405180910390a15b505050505050505050565b60606010805480602002602001604051908101604052809291908181526020018280548015610e0957602002820191906000526020600020905b8160009054906101000a900473ffffffffffffffffffffffffffffffffffffffff1673ffffffffffffffffffffffffffffffffffffffff1681526020019060010190808311610dbf575b5050505050905090565b6000809054906101000a900473ffffffffffffffffffffffffffffffffffffffff1681565b6000809054906101000a900473ffffffffffffffffffffffffffffffffffffffff1673ffffffffffffffffffffffffffffffffffffffff163373ffffffffffffffffffffffffffffffffffffffff16141515610e9357600080fd5b600060075414151515610f0e576040517f08c379a000000000000000000000000000000000000000000000000000000000815260040180806020018281038252601d8152602001807f54686973206973206e6f7420612062657474696e6720706572696f642e00000081525060200191505060405180910390fd5b8060098190555050565b6000809054906101000a900473ffffffffffffffffffffffffffffffffffffffff1673ffffffffffffffffffffffffffffffffffffffff163373ffffffffffffffffffffffffffffffffffffffff16141515610f7357600080fd5b8060048190555050565b600d81815481101515610f8c57fe5b906000526020600020016000915054906101000a900473ffffffffffffffffffffffffffffffffffffffff1681565b6000600454905090565b600b6020528060005260406000206000915090505481565b600c6020528060005260406000206000915090505481565b6060600d80548060200260200160405190810160405280929190818152602001828054801561107957602002820191906000526020600020905b8160009054906101000a900473ffffffffffffffffffffffffffffffffffffffff1673ffffffffffffffffffffffffffffffffffffffff168152602001906001019080831161102f575b5050505050905090565b600080600754141515611124576040517f08c379a00000000000000000000000000000000000000000000000000000000081526004018080602001828103825260218152602001807f54686973206973206e6f7420616e20696e766573746d656e7420706572696f6481526020017f2e0000000000000000000000000000000000000000000000000000000000000081525060400191505060405180910390fd5b60035434101515156111c4576040517f08c379a00000000000000000000000000000000000000000000000000000000081526004018080602001828103825260298152602001807f436865636b2074686520696e766573746d656e742076616c7565206f6620746881526020017f697320726f756e642e000000000000000000000000000000000000000000000081525060400191505060405180910390fd5b600354600e60003373ffffffffffffffffffffffffffffffffffffffff1673ffffffffffffffffffffffffffffffffffffffff1681526020019081526020016000206000828254019250508190555060103390806001815401808255809150509060018203906000526020600020016000909192909190916101000a81548173ffffffffffffffffffffffffffffffffffffffff021916908373ffffffffffffffffffffffffffffffffffffffff160217905550506003543403905060008111156112d1573373ffffffffffffffffffffffffffffffffffffffff166108fc829081150290604051600060405180830381858888f193505050501580156112cf573d6000803e3d6000fd5b505b7fd90d253a9de34d2fdd5a75ae49ea17fcb43af32fc8ea08cc6d2341991dd3872e333073ffffffffffffffffffffffffffffffffffffffff1631604051808373ffffffffffffffffffffffffffffffffffffffff1673ffffffffffffffffffffffffffffffffffffffff1681526020018281526020019250505060405180910390a16004543073ffffffffffffffffffffffffffffffffffffffff163111156113cb5761137c611765565b7f12333b322723ec26360eb708b341801ecca576387b55caa77d6e408107d2c70f3073ffffffffffffffffffffffffffffffffffffffff16316040518082815260200191505060405180910390a15b50565b6000809054906101000a900473ffffffffffffffffffffffffffffffffffffffff1673ffffffffffffffffffffffffffffffffffffffff163373ffffffffffffffffffffffffffffffffffffffff1614151561142957600080fd5b600073ffffffffffffffffffffffffffffffffffffffff168173ffffffffffffffffffffffffffffffffffffffff161415151561146557600080fd5b8073ffffffffffffffffffffffffffffffffffffffff166000809054906101000a900473ffffffffffffffffffffffffffffffffffffffff1673ffffffffffffffffffffffffffffffffffffffff167f8be0079c531659141344cd1fd0a4f28419497f9722a3daafe3b4186f6b6457e060405160405180910390a3806000806101000a81548173ffffffffffffffffffffffffffffffffffffffff021916908373ffffffffffffffffffffffffffffffffffffffff16021790555050565b6000806007819055506000600660006101000a81548160ff0219169083600181111561154b57fe5b021790555060009050600090505b6010805490508110156115ef57600f600060108381548110151561157957fe5b9060005260206000200160009054906101000a900473ffffffffffffffffffffffffffffffffffffffff1673ffffffffffffffffffffffffffffffffffffffff1673ffffffffffffffffffffffffffffffffffffffff168152602001908152602001600020600090558080600101915050611559565b601060006115fd91906117a0565b600090505b600d8054905081101561169857600c6000600d8381548110151561162257fe5b9060005260206000200160009054906101000a900473ffffffffffffffffffffffffffffffffffffffff1673ffffffffffffffffffffffffffffffffffffffff1673ffffffffffffffffffffffffffffffffffffffff168152602001908152602001600020600090558080600101915050611602565b600d60006116a691906117a0565b600954600a024233600554604051808481526020018373ffffffffffffffffffffffffffffffffffffffff1673ffffffffffffffffffffffffffffffffffffffff166c01000000000000000000000000028152601401828152602001935050505060405180910390206001900481151561171c57fe5b0660088190555050565b6000600a600254600954600a0a0281151561173d57fe5b043073ffffffffffffffffffffffffffffffffffffffff163181151561175f57fe5b04905090565b6001600660006101000a81548160ff0219169083600181111561178457fe5b021790555042600781905550611798611726565b600181905550565b50805460008255906000526020600020908101906117be91906117c1565b50565b6117e391905b808211156117df5760008160009055506001016117c7565b5090565b905600a165627a7a723058208f9a3d4a863dc2b907ce13a6ebca5a731b19064b20b74b4dd4ddce558a2f239f0029",
  "source": "pragma solidity ^0.4.23;\n\nimport 'zeppelin-solidity/contracts/ownership/Ownable.sol';\n\ncontract Treasure is Ownable {\n    uint bettingPrice;\n    uint bettingRate; // 1-10\n\n    uint investPricePerAddress;\n    uint minimumWinningReward;\n\n    uint round;\n    enum Status {INVESTING, BETTING}\n\n    Status currentState;\n    uint gameStartedAt;\n\n\n    uint winningNumber;\n    uint winningNumberDigits;\n\n    struct Reward {\n        uint round;\n        uint date;\n        uint amount;\n    }\n\n    mapping(address => Reward) public winners;\n\n    mapping(address => uint) public hunters;\n    mapping(address => uint) public currentHunters;\n    address[] public currentHunterAddresses;\n    mapping(address => uint) public investors;\n    mapping(address => uint) public currentInvestors;\n    address[] public currentInvestorAddresses;\n\n    event Bet(address _hunter);\n    event Invest(address _investor, uint _reward);\n    event StartGame(uint _reward);\n    event FinishGame(address _hunter, uint _winningNumber, uint _reward);\n\n    constructor() public {\n        round = 1;\n        winningNumberDigits = 3;\n        bettingRate=5;\n        minimumWinningReward= 1 ether;\n        investPricePerAddress = minimumWinningReward / 3;\n        bettingPrice = 0;\n        gameStartedAt = 0;\n        initGame();\n    }\n\n    modifier inBetting() {\n        require(gameStartedAt != 0, \"This is not a betting period.\");\n        _;\n    }\n\n    modifier inInvesting() {\n        require(gameStartedAt == 0, \"This is not an investment period.\");\n        _;\n    }\n\n    modifier investOncePerRound() {\n        require(investors[msg.sender] == 0, \"This address has already invested in this round.\");\n        _;\n    }\n\n    modifier enoughInvestValue() {\n        require(msg.value >= investPricePerAddress, \"Check the investment value of this round.\");\n        _;\n    }\n\n    modifier enoughBetValue(){\n        require(msg.value >= bettingPrice, \"Check the betting value.\");\n        _;\n    }\n\n\n    function initGame() private {\n        gameStartedAt = 0;\n        currentState = Status.INVESTING;\n        uint i=0;\n        for(i=0; i <currentInvestorAddresses.length;i++){\n            delete currentInvestors[currentInvestorAddresses[i]];\n        }\n        delete currentInvestorAddresses;\n\n        for(i=0; i <currentHunterAddresses.length;i++){\n            delete currentHunters[currentHunterAddresses[i]];\n        }\n        delete currentHunterAddresses;\n\n        winningNumber = uint(keccak256(now, msg.sender, round)) % (10 * winningNumberDigits);\n    }\n\n    //  bettingPrice = Reward/10**winningNumberDigits*bettingRate\n    function startGame() private {\n        currentState = Status.BETTING;\n        gameStartedAt = now;\n        bettingPrice = getNewBettingPrice();\n    }\n\n    function finishGame() private {\n        initGame();\n    }\n\n    function getBettingPrice() public view returns (uint){\n        return bettingPrice;\n    }\n\n    function getNewBettingPrice() private view returns(uint){\n        return (address(this).balance)/((10**winningNumberDigits)*bettingRate/10);\n    }\n\n    function getWinningNumberDigits() public view returns (uint){\n        return winningNumberDigits;\n    }\n\n    function setWinningNumberDigits(uint _digits) external onlyOwner inBetting {\n        winningNumberDigits = _digits;\n    }\n\n    function getInvestPrice() public view returns (uint) {\n        return investPricePerAddress;\n    }\n\n    function setInvestPricePerAddress(uint _price) external onlyOwner {\n        require(gameStartedAt != 0);\n\n        investPricePerAddress = _price;\n    }\n\n    function getHunterAddresses() public view returns (address[]){\n        return currentHunterAddresses;\n    }\n\n    function getInvestorAddresses() public view returns (address[]){\n        return currentInvestorAddresses;\n    }\n\n    function getMinimumWinningReward() public view returns (uint) {\n        return minimumWinningReward;\n    }\n\n    function setMinimumWinningReward(uint _minimum) external onlyOwner {\n        minimumWinningReward = _minimum;\n    }\n\n    function getReward() public view returns (uint) {\n        return address(this).balance;\n    }\n\n    function getState() public view returns (Status) {\n        return currentState;\n    }\n\n    function getContractAddress() public view returns (address) {\n        return address(this);\n    }\n\n    function invest() payable public inInvesting enoughInvestValue { //investOncePerRound {\n        investors[msg.sender] += investPricePerAddress;\n        currentInvestorAddresses.push(msg.sender);\n\n        uint _overSentValue = msg.value - investPricePerAddress;\n        if (_overSentValue > 0) {\n            msg.sender.transfer(_overSentValue);\n        }\n\n        emit Invest(msg.sender, address(this).balance);\n\n        if (address(this).balance > minimumWinningReward){\n            startGame();\n            emit StartGame(address(this).balance);\n        }\n    }\n\n    function bet(uint _guessingNumber) payable public inBetting enoughBetValue {\n        hunters[msg.sender] += bettingPrice;\n        currentHunterAddresses.push(msg.sender);\n\n        uint _overSentValue = msg.value - bettingPrice;\n        if (_overSentValue > 0) {\n            msg.sender.transfer(_overSentValue);\n        }\n\n        bool _won = _guessingNumber == winningNumber;\n        if (_won) {\n            uint _totalReward = address(this).balance;\n            uint _betterReward = _totalReward / 2;\n            uint _investorsReward = _totalReward - _betterReward;\n            uint _investorsCount = currentInvestorAddresses.length ;\n            uint _investorReward = _investorsReward / _investorsCount;\n            msg.sender.transfer(_betterReward);\n\n            winners[msg.sender] = Reward({amount : _totalReward, date : now, round : round});\n\n            emit FinishGame(msg.sender, winningNumber, _betterReward);\n\n            for (uint i = 0; i < _investorsCount; i++) {\n                currentInvestorAddresses[i].transfer(_investorReward);\n            }\n            initGame();\n        } else {\n            bettingPrice = getNewBettingPrice();\n\n            emit Bet(msg.sender);\n        }\n    }\n}",
  "sourcePath": "/Users/user/Workspace/treasure-hunter/contracts/Treasure.sol",
  "compiler": {
    "name": "solc",
    "version": "0.4.23+commit.124ca40d.Emscripten.clang"
  },
  "schemaVersion": "2.0.0",
  "updatedAt": "2018-04-30T11:09:10.793Z"
}