{
  "contractName": "Treasure",
  "abi": [
    {
      "constant": true,
      "inputs": [],
      "name": "creator",
      "outputs": [
        {
          "name": "",
          "type": "address"
        }
      ],
      "payable": false,
      "stateMutability": "view",
      "type": "function"
    },
    {
      "constant": true,
      "inputs": [
        {
          "name": "",
          "type": "address"
        }
      ],
      "name": "hunters",
      "outputs": [
        {
          "name": "balance",
          "type": "uint256"
        },
        {
          "name": "accumulatedAmount",
          "type": "uint256"
        }
      ],
      "payable": false,
      "stateMutability": "view",
      "type": "function"
    },
    {
      "inputs": [],
      "payable": false,
      "stateMutability": "nonpayable",
      "type": "constructor"
    },
    {
      "payable": true,
      "stateMutability": "payable",
      "type": "fallback"
    },
    {
      "anonymous": false,
      "inputs": [
        {
          "indexed": false,
          "name": "hunter",
          "type": "address"
        },
        {
          "indexed": false,
          "name": "amount",
          "type": "uint256"
        }
      ],
      "name": "Won",
      "type": "event"
    },
    {
      "anonymous": false,
      "inputs": [
        {
          "indexed": false,
          "name": "hunter",
          "type": "address"
        },
        {
          "indexed": false,
          "name": "amount",
          "type": "uint256"
        }
      ],
      "name": "Bet",
      "type": "event"
    },
    {
      "constant": false,
      "inputs": [
        {
          "name": "level",
          "type": "uint256"
        }
      ],
      "name": "setLevelOfDifficulty",
      "outputs": [
        {
          "name": "",
          "type": "uint256"
        }
      ],
      "payable": false,
      "stateMutability": "nonpayable",
      "type": "function"
    },
    {
      "constant": true,
      "inputs": [
        {
          "name": "addr",
          "type": "address"
        }
      ],
      "name": "getBalance",
      "outputs": [
        {
          "name": "",
          "type": "uint256"
        }
      ],
      "payable": false,
      "stateMutability": "view",
      "type": "function"
    },
    {
      "constant": true,
      "inputs": [],
      "name": "getAddress",
      "outputs": [
        {
          "name": "",
          "type": "address"
        }
      ],
      "payable": false,
      "stateMutability": "view",
      "type": "function"
    },
    {
      "constant": false,
      "inputs": [
        {
          "name": "guess",
          "type": "uint256"
        }
      ],
      "name": "bet",
      "outputs": [],
      "payable": true,
      "stateMutability": "payable",
      "type": "function"
    }
  ],
  "bytecode": "0x606060405273bd1df2c9c9a6744c11e8a1ac20e75a907aabfdd2600160006101000a81548173ffffffffffffffffffffffffffffffffffffffff021916908373ffffffffffffffffffffffffffffffffffffffff160217905550341561006457600080fd5b610081600161008764010000000002610242176401000000009004565b506100dc565b600060018214156100a157620f42406000819055506100d2565b60028214156100ba57633b9aca006000819055506100d1565b60038214156100d05764e8d4a510006000819055505b5b5b6000549050919050565b610469806100eb6000396000f300606060405260043610610078576000357c0100000000000000000000000000000000000000000000000000000000900463ffffffff16806302d05d3f1461007a57806338cc4831146100cf5780634dcd65f6146101245780637365870b1461015b578063bdafeb1814610173578063f8b2cb4f146101c7575b005b341561008557600080fd5b61008d610214565b604051808273ffffffffffffffffffffffffffffffffffffffff1673ffffffffffffffffffffffffffffffffffffffff16815260200191505060405180910390f35b34156100da57600080fd5b6100e261023a565b604051808273ffffffffffffffffffffffffffffffffffffffff1673ffffffffffffffffffffffffffffffffffffffff16815260200191505060405180910390f35b341561012f57600080fd5b6101456004808035906020019091905050610242565b6040518082815260200191505060405180910390f35b6101716004808035906020019091905050610297565b005b341561017e57600080fd5b6101aa600480803573ffffffffffffffffffffffffffffffffffffffff169060200190919050506103f8565b604051808381526020018281526020019250505060405180910390f35b34156101d257600080fd5b6101fe600480803573ffffffffffffffffffffffffffffffffffffffff1690602001909190505061041c565b6040518082815260200191505060405180910390f35b600160009054906101000a900473ffffffffffffffffffffffffffffffffffffffff1681565b600030905090565b6000600182141561025c57620f424060008190555061028d565b600282141561027557633b9aca0060008190555061028c565b600382141561028b5764e8d4a510006000819055505b5b5b6000549050919050565b60008054600260003373ffffffffffffffffffffffffffffffffffffffff1673ffffffffffffffffffffffffffffffffffffffff168152602001908152602001600020600001541115156102ea57600080fd5b600054600260003373ffffffffffffffffffffffffffffffffffffffff1673ffffffffffffffffffffffffffffffffffffffff16815260200190815260200160002060010160008282540192505081905550606f90508082141561038f573373ffffffffffffffffffffffffffffffffffffffff166108fc6127109081150290604051600060405180830381858888f19350505050151561038a57600080fd5b6103f4565b600160009054906101000a900473ffffffffffffffffffffffffffffffffffffffff1673ffffffffffffffffffffffffffffffffffffffff166108fc6000549081150290604051600060405180830381858888f1935050505015156103f357600080fd5b5b5050565b60026020528060005260406000206000915090508060000154908060010154905082565b60008173ffffffffffffffffffffffffffffffffffffffff163190509190505600a165627a7a72305820e96aec7dd27dea48cb179129911745576982ec3a51c1499c3d4b48cf7dc49ebf0029",
  "source": "pragma solidity ^0.4.17;\n\ncontract Treasure {\n    uint bettingPrice;\n    address public creator = 0xBD1DF2C9C9A6744c11e8a1aC20e75A907AaBFdd2;\n\n    struct Hunter {\n        uint balance;\n        uint accumulatedAmount; // how much an user has spent for a game. \n    }\n\n    /* An address of user maps to the balance of the user */\n    mapping(address => Hunter) public hunters;\n\n    event Won(address hunter, uint amount);\n    event Bet(address hunter, uint amount);\n\n    // Contructor\n    function Treasure() public {\n        setLevelOfDifficulty(1);\n    }\n\n    /* \n    * level 1 : betting price is 1,000,000 wei per game.\n    * level 2 : betting price is 1,000,000,000 wei per game (when one digits found).\n    * level 3 : betting price is 1,000,000,000,000 wei per game (when two digits found).\n    */\n    function setLevelOfDifficulty(uint level) public returns (uint){\n        if (level == 1)\n            bettingPrice = 1000000 wei;\n        else if (level == 2)\n            bettingPrice = 1000000000 wei;\n        else if (level == 3)\n            bettingPrice = 1000000000000 wei;\n        return bettingPrice;\n    }\n\n    function getBalance(address addr) public view returns(uint) {\n        return addr.balance;\n    }\n\n    function getAddress() public view returns(address) {\n        return address(this);\n    }\n\n    function bet(uint guess) payable public {\n        require(hunters[msg.sender].balance > bettingPrice);\n\n        hunters[msg.sender].accumulatedAmount += bettingPrice;\n        \n        // TODO: This randomness is not safe.\n        // uint winningNumber = block.number % 999 + 1;\n        uint winningNumber = 111;\n\n        if (guess == winningNumber) {\n            // Send all money of the current contract to the winner\n            msg.sender.transfer(10000 wei);\n            // emit Won(msg.sender, address(this).balance);\n        } else {\n            // If wrong, send betting price to the current contract\n            creator.transfer(bettingPrice);\n        }\n        return;\n    } \n\n    // Fallback: http://solidity.readthedocs.io/en/v0.4.21/contracts.html\n    // this function is executed whenever the contract receives plain Ether (without data). \n    // Additionally, in order to receive Ether, the fallback function must be marked payable. \n    // If no such function exists, the contract cannot receive Ether through regular transactions.\n    function() payable public {}\n}",
  "sourcePath": "/Users/deukyeolchoe/projects/treasure-hunter/contracts/Treasure.sol",
  "compiler": {
    "name": "solc",
    "version": "0.4.21+commit.dfe3193c.Emscripten.clang"
  },
  "schemaVersion": "2.0.0",
  "updatedAt": "2018-04-09T16:42:52.514Z"
}