{
  "contractName": "Treasure",
  "abi": [
    {
      "constant": true,
      "inputs": [
        {
          "name": "",
          "type": "address"
        }
      ],
      "name": "currentInvestors",
      "outputs": [
        {
          "name": "",
          "type": "uint256"
        }
      ],
      "payable": false,
      "stateMutability": "view",
      "type": "function"
    },
    {
      "constant": true,
      "inputs": [
        {
          "name": "",
          "type": "address"
        }
      ],
      "name": "winners",
      "outputs": [
        {
          "name": "round",
          "type": "uint256"
        },
        {
          "name": "date",
          "type": "uint256"
        },
        {
          "name": "amount",
          "type": "uint256"
        }
      ],
      "payable": false,
      "stateMutability": "view",
      "type": "function"
    },
    {
      "constant": true,
      "inputs": [
        {
          "name": "",
          "type": "address"
        }
      ],
      "name": "investors",
      "outputs": [
        {
          "name": "",
          "type": "uint256"
        }
      ],
      "payable": false,
      "stateMutability": "view",
      "type": "function"
    },
    {
      "constant": true,
      "inputs": [
        {
          "name": "",
          "type": "uint256"
        }
      ],
      "name": "currentInvestorAddresses",
      "outputs": [
        {
          "name": "",
          "type": "address"
        }
      ],
      "payable": false,
      "stateMutability": "view",
      "type": "function"
    },
    {
      "constant": true,
      "inputs": [],
      "name": "owner",
      "outputs": [
        {
          "name": "",
          "type": "address"
        }
      ],
      "payable": false,
      "stateMutability": "view",
      "type": "function"
    },
    {
      "constant": true,
      "inputs": [
        {
          "name": "",
          "type": "uint256"
        }
      ],
      "name": "currentHunterAddresses",
      "outputs": [
        {
          "name": "",
          "type": "address"
        }
      ],
      "payable": false,
      "stateMutability": "view",
      "type": "function"
    },
    {
      "constant": true,
      "inputs": [
        {
          "name": "",
          "type": "address"
        }
      ],
      "name": "hunters",
      "outputs": [
        {
          "name": "",
          "type": "uint256"
        }
      ],
      "payable": false,
      "stateMutability": "view",
      "type": "function"
    },
    {
      "constant": true,
      "inputs": [
        {
          "name": "",
          "type": "address"
        }
      ],
      "name": "currentHunters",
      "outputs": [
        {
          "name": "",
          "type": "uint256"
        }
      ],
      "payable": false,
      "stateMutability": "view",
      "type": "function"
    },
    {
      "constant": false,
      "inputs": [
        {
          "name": "newOwner",
          "type": "address"
        }
      ],
      "name": "transferOwnership",
      "outputs": [],
      "payable": false,
      "stateMutability": "nonpayable",
      "type": "function"
    },
    {
      "inputs": [],
      "payable": false,
      "stateMutability": "nonpayable",
      "type": "constructor"
    },
    {
      "anonymous": false,
      "inputs": [
        {
          "indexed": false,
          "name": "_hunter",
          "type": "address"
        }
      ],
      "name": "Bet",
      "type": "event"
    },
    {
      "anonymous": false,
      "inputs": [
        {
          "indexed": false,
          "name": "_investor",
          "type": "address"
        },
        {
          "indexed": false,
          "name": "_reward",
          "type": "uint256"
        }
      ],
      "name": "Invest",
      "type": "event"
    },
    {
      "anonymous": false,
      "inputs": [
        {
          "indexed": false,
          "name": "_reward",
          "type": "uint256"
        }
      ],
      "name": "StartGame",
      "type": "event"
    },
    {
      "anonymous": false,
      "inputs": [
        {
          "indexed": false,
          "name": "_hunter",
          "type": "address"
        },
        {
          "indexed": false,
          "name": "_winningNumber",
          "type": "uint256"
        },
        {
          "indexed": false,
          "name": "_reward",
          "type": "uint256"
        }
      ],
      "name": "FinishGame",
      "type": "event"
    },
    {
      "anonymous": false,
      "inputs": [
        {
          "indexed": true,
          "name": "previousOwner",
          "type": "address"
        },
        {
          "indexed": true,
          "name": "newOwner",
          "type": "address"
        }
      ],
      "name": "OwnershipTransferred",
      "type": "event"
    },
    {
      "constant": true,
      "inputs": [],
      "name": "getBettingPrice",
      "outputs": [
        {
          "name": "",
          "type": "uint256"
        }
      ],
      "payable": false,
      "stateMutability": "view",
      "type": "function"
    },
    {
      "constant": true,
      "inputs": [],
      "name": "getWinningNumberDigits",
      "outputs": [
        {
          "name": "",
          "type": "uint256"
        }
      ],
      "payable": false,
      "stateMutability": "view",
      "type": "function"
    },
    {
      "constant": false,
      "inputs": [
        {
          "name": "_digits",
          "type": "uint256"
        }
      ],
      "name": "setWinningNumberDigits",
      "outputs": [],
      "payable": false,
      "stateMutability": "nonpayable",
      "type": "function"
    },
    {
      "constant": true,
      "inputs": [],
      "name": "getInvestPeriod",
      "outputs": [
        {
          "name": "",
          "type": "uint256"
        }
      ],
      "payable": false,
      "stateMutability": "view",
      "type": "function"
    },
    {
      "constant": true,
      "inputs": [],
      "name": "getInvestExpireAt",
      "outputs": [
        {
          "name": "",
          "type": "uint256"
        }
      ],
      "payable": false,
      "stateMutability": "view",
      "type": "function"
    },
    {
      "constant": false,
      "inputs": [
        {
          "name": "_inSeconds",
          "type": "uint256"
        }
      ],
      "name": "setInvestPeriod",
      "outputs": [],
      "payable": false,
      "stateMutability": "nonpayable",
      "type": "function"
    },
    {
      "constant": true,
      "inputs": [],
      "name": "getInvestPrice",
      "outputs": [
        {
          "name": "",
          "type": "uint256"
        }
      ],
      "payable": false,
      "stateMutability": "view",
      "type": "function"
    },
    {
      "constant": false,
      "inputs": [
        {
          "name": "_price",
          "type": "uint256"
        }
      ],
      "name": "setInvestPricePerAddress",
      "outputs": [],
      "payable": false,
      "stateMutability": "nonpayable",
      "type": "function"
    },
    {
      "constant": true,
      "inputs": [],
      "name": "getHunterAddresses",
      "outputs": [
        {
          "name": "",
          "type": "address[]"
        }
      ],
      "payable": false,
      "stateMutability": "view",
      "type": "function"
    },
    {
      "constant": true,
      "inputs": [],
      "name": "getInvestorAddresses",
      "outputs": [
        {
          "name": "",
          "type": "address[]"
        }
      ],
      "payable": false,
      "stateMutability": "view",
      "type": "function"
    },
    {
      "constant": true,
      "inputs": [
        {
          "name": "_addr",
          "type": "address"
        }
      ],
      "name": "getClientBalance",
      "outputs": [
        {
          "name": "",
          "type": "uint256"
        }
      ],
      "payable": false,
      "stateMutability": "view",
      "type": "function"
    },
    {
      "constant": true,
      "inputs": [],
      "name": "getMinimumWinningReward",
      "outputs": [
        {
          "name": "",
          "type": "uint256"
        }
      ],
      "payable": false,
      "stateMutability": "view",
      "type": "function"
    },
    {
      "constant": false,
      "inputs": [
        {
          "name": "_minimum",
          "type": "uint256"
        }
      ],
      "name": "setMinimumWinningReward",
      "outputs": [],
      "payable": false,
      "stateMutability": "nonpayable",
      "type": "function"
    },
    {
      "constant": true,
      "inputs": [],
      "name": "getReward",
      "outputs": [
        {
          "name": "",
          "type": "uint256"
        }
      ],
      "payable": false,
      "stateMutability": "view",
      "type": "function"
    },
    {
      "constant": true,
      "inputs": [],
      "name": "getState",
      "outputs": [
        {
          "name": "",
          "type": "uint8"
        }
      ],
      "payable": false,
      "stateMutability": "view",
      "type": "function"
    },
    {
      "constant": true,
      "inputs": [],
      "name": "getContractAddress",
      "outputs": [
        {
          "name": "",
          "type": "address"
        }
      ],
      "payable": false,
      "stateMutability": "view",
      "type": "function"
    },
    {
      "constant": false,
      "inputs": [],
      "name": "invest",
      "outputs": [],
      "payable": true,
      "stateMutability": "payable",
      "type": "function"
    },
    {
      "constant": false,
      "inputs": [
        {
          "name": "_guessingNumber",
          "type": "uint256"
        }
      ],
      "name": "bet",
      "outputs": [],
      "payable": true,
      "stateMutability": "payable",
      "type": "function"
    }
  ],
  "bytecode": "0x606060405234156200001057600080fd5b336000806101000a81548173ffffffffffffffffffffffffffffffffffffffff021916908373ffffffffffffffffffffffffffffffffffffffff16021790555060016008819055506003600c81905550603c60058190555060056002819055506611c37937e0800060078190555060036007548115156200008d57fe5b046006819055506000600181905550620000ba620000c06401000000000262001466176401000000009004565b62000330565b600080600a81905550426003819055506000600960006101000a81548160ff02191690836001811115620000f057fe5b021790555060009050600090505b6013805490508110156200019857601260006013838154811015156200012057fe5b906000526020600020900160009054906101000a900473ffffffffffffffffffffffffffffffffffffffff1673ffffffffffffffffffffffffffffffffffffffff1673ffffffffffffffffffffffffffffffffffffffff168152602001908152602001600020600090558080600101915050620000fe565b60136000620001a89190620002e5565b600090505b6010805490508110156200024757600f6000601083815481101515620001cf57fe5b906000526020600020900160009054906101000a900473ffffffffffffffffffffffffffffffffffffffff1673ffffffffffffffffffffffffffffffffffffffff1673ffffffffffffffffffffffffffffffffffffffff168152602001908152602001600020600090558080600101915050620001ad565b60106000620002579190620002e5565b60055460035401600481905550600c54600a024233600854604051808481526020018373ffffffffffffffffffffffffffffffffffffffff1673ffffffffffffffffffffffffffffffffffffffff166c010000000000000000000000000281526014018281526020019350505050604051809103902060019004811515620002db57fe5b06600b8190555050565b508054600082559060005260206000209081019062000305919062000308565b50565b6200032d91905b80821115620003295760008160009055506001016200030f565b5090565b90565b6117bb80620003406000396000f30060606040526004361061015f576000357c0100000000000000000000000000000000000000000000000000000000900463ffffffff168063029a7f8d146101645780631865c57d1461018d57806332a2c5d0146101c45780633844e1c4146102195780633d18b912146102665780633dcdc7c71461028f5780634c8d7e58146102b85780634e75e1b8146102db57806365aaa564146102fe5780636bd5450a1461034b5780636f7bc9be146103a65780636fcf30ee146103f357806371b804ee146104565780637365870b1461047f57806379d8e9cc146104975780638da5cb5b146105015780638e8a842a146105565780639c591bce146105795780639fb6b9551461059c578063a28b1074146105ff578063a89e0b2514610628578063bdafeb1814610651578063db7f7d171461069e578063e4158b83146106eb578063e8b5e51f14610755578063f2fde38b1461075f578063fd5f25c714610798575b600080fd5b341561016f57600080fd5b6101776107c1565b6040518082815260200191505060405180910390f35b341561019857600080fd5b6101a06107cb565b604051808260018111156101b057fe5b60ff16815260200191505060405180910390f35b34156101cf57600080fd5b6101d76107e2565b604051808273ffffffffffffffffffffffffffffffffffffffff1673ffffffffffffffffffffffffffffffffffffffff16815260200191505060405180910390f35b341561022457600080fd5b610250600480803573ffffffffffffffffffffffffffffffffffffffff169060200190919050506107ea565b6040518082815260200191505060405180910390f35b341561027157600080fd5b61027961080b565b6040518082815260200191505060405180910390f35b341561029a57600080fd5b6102a261082a565b6040518082815260200191505060405180910390f35b34156102c357600080fd5b6102d96004808035906020019091905050610834565b005b34156102e657600080fd5b6102fc60048080359060200190919050506108ab565b005b341561030957600080fd5b610335600480803573ffffffffffffffffffffffffffffffffffffffff16906020019091905050610922565b6040518082815260200191505060405180910390f35b341561035657600080fd5b610382600480803573ffffffffffffffffffffffffffffffffffffffff1690602001909190505061093a565b60405180848152602001838152602001828152602001935050505060405180910390f35b34156103b157600080fd5b6103dd600480803573ffffffffffffffffffffffffffffffffffffffff16906020019091905050610964565b6040518082815260200191505060405180910390f35b34156103fe57600080fd5b610414600480803590602001909190505061097c565b604051808273ffffffffffffffffffffffffffffffffffffffff1673ffffffffffffffffffffffffffffffffffffffff16815260200191505060405180910390f35b341561046157600080fd5b6104696109bb565b6040518082815260200191505060405180910390f35b61049560048080359060200190919050506109c5565b005b34156104a257600080fd5b6104aa610dba565b6040518080602001828103825283818151815260200191508051906020019060200280838360005b838110156104ed5780820151818401526020810190506104d2565b505050509050019250505060405180910390f35b341561050c57600080fd5b610514610e4e565b604051808273ffffffffffffffffffffffffffffffffffffffff1673ffffffffffffffffffffffffffffffffffffffff16815260200191505060405180910390f35b341561056157600080fd5b6105776004808035906020019091905050610e73565b005b341561058457600080fd5b61059a6004808035906020019091905050610eea565b005b34156105a757600080fd5b6105bd6004808035906020019091905050610f4f565b604051808273ffffffffffffffffffffffffffffffffffffffff1673ffffffffffffffffffffffffffffffffffffffff16815260200191505060405180910390f35b341561060a57600080fd5b610612610f8e565b6040518082815260200191505060405180910390f35b341561063357600080fd5b61063b610f98565b6040518082815260200191505060405180910390f35b341561065c57600080fd5b610688600480803573ffffffffffffffffffffffffffffffffffffffff16906020019091905050610fa2565b6040518082815260200191505060405180910390f35b34156106a957600080fd5b6106d5600480803573ffffffffffffffffffffffffffffffffffffffff16906020019091905050610fba565b6040518082815260200191505060405180910390f35b34156106f657600080fd5b6106fe610fd2565b6040518080602001828103825283818151815260200191508051906020019060200280838360005b83811015610741578082015181840152602081019050610726565b505050509050019250505060405180910390f35b61075d611066565b005b341561076a57600080fd5b610796600480803573ffffffffffffffffffffffffffffffffffffffff16906020019091905050611307565b005b34156107a357600080fd5b6107ab61145c565b6040518082815260200191505060405180910390f35b6000600654905090565b6000600960009054906101000a900460ff16905090565b600030905090565b60008173ffffffffffffffffffffffffffffffffffffffff16319050919050565b60003073ffffffffffffffffffffffffffffffffffffffff1631905090565b6000600c54905090565b6000809054906101000a900473ffffffffffffffffffffffffffffffffffffffff1673ffffffffffffffffffffffffffffffffffffffff163373ffffffffffffffffffffffffffffffffffffffff1614151561088f57600080fd5b6000600a54141515156108a157600080fd5b8060058190555050565b6000809054906101000a900473ffffffffffffffffffffffffffffffffffffffff1673ffffffffffffffffffffffffffffffffffffffff163373ffffffffffffffffffffffffffffffffffffffff1614151561090657600080fd5b6000600a541415151561091857600080fd5b8060068190555050565b60126020528060005260406000206000915090505481565b600d6020528060005260406000206000915090508060000154908060010154908060020154905083565b60116020528060005260406000206000915090505481565b60138181548110151561098b57fe5b90600052602060002090016000915054906101000a900473ffffffffffffffffffffffffffffffffffffffff1681565b6000600154905090565b6000806000806000806000806001808111156109dd57fe5b600960009054906101000a900460ff1660018111156109f857fe5b141515610a0457600080fd5b6001543410151515610a1557600080fd5b600154600e60003373ffffffffffffffffffffffffffffffffffffffff1673ffffffffffffffffffffffffffffffffffffffff1681526020019081526020016000206000828254019250508190555060108054806001018281610a789190611709565b9160005260206000209001600033909190916101000a81548173ffffffffffffffffffffffffffffffffffffffff021916908373ffffffffffffffffffffffffffffffffffffffff16021790555050600154340397506000881115610b18573373ffffffffffffffffffffffffffffffffffffffff166108fc899081150290604051600060405180830381858888f193505050501515610b1757600080fd5b5b600b54891496508615610d3d573073ffffffffffffffffffffffffffffffffffffffff16319550600286811515610b4b57fe5b049450848603935060138054905092508284811515610b6657fe5b0491503373ffffffffffffffffffffffffffffffffffffffff166108fc869081150290604051600060405180830381858888f193505050501515610ba957600080fd5b606060405190810160405280600854815260200142815260200187815250600d60003373ffffffffffffffffffffffffffffffffffffffff1673ffffffffffffffffffffffffffffffffffffffff1681526020019081526020016000206000820151816000015560208201518160010155604082015181600201559050507f24f0fd24923e4709397160fd2d73547b4909eda7d9a46b14ae493d6d7d1783b133600b5487604051808473ffffffffffffffffffffffffffffffffffffffff1673ffffffffffffffffffffffffffffffffffffffff168152602001838152602001828152602001935050505060405180910390a1600090505b82811015610d3057601381815481101515610cb857fe5b906000526020600020900160009054906101000a900473ffffffffffffffffffffffffffffffffffffffff1673ffffffffffffffffffffffffffffffffffffffff166108fc839081150290604051600060405180830381858888f193505050501515610d2357600080fd5b8080600101915050610ca1565b610d38611466565b610daf565b610d4561167f565b6001819055507fb7d130e59ce2d673030116a965b2ef42f68547155234b2a8762c19711831d23633604051808273ffffffffffffffffffffffffffffffffffffffff1673ffffffffffffffffffffffffffffffffffffffff16815260200191505060405180910390a15b505050505050505050565b610dc2611735565b6013805480602002602001604051908101604052809291908181526020018280548015610e4457602002820191906000526020600020905b8160009054906101000a900473ffffffffffffffffffffffffffffffffffffffff1673ffffffffffffffffffffffffffffffffffffffff1681526020019060010190808311610dfa575b5050505050905090565b6000809054906101000a900473ffffffffffffffffffffffffffffffffffffffff1681565b6000809054906101000a900473ffffffffffffffffffffffffffffffffffffffff1673ffffffffffffffffffffffffffffffffffffffff163373ffffffffffffffffffffffffffffffffffffffff16141515610ece57600080fd5b6000600a5414151515610ee057600080fd5b80600c8190555050565b6000809054906101000a900473ffffffffffffffffffffffffffffffffffffffff1673ffffffffffffffffffffffffffffffffffffffff163373ffffffffffffffffffffffffffffffffffffffff16141515610f4557600080fd5b8060078190555050565b601081815481101515610f5e57fe5b90600052602060002090016000915054906101000a900473ffffffffffffffffffffffffffffffffffffffff1681565b6000600454905090565b6000600754905090565b600e6020528060005260406000206000915090505481565b600f6020528060005260406000206000915090505481565b610fda611735565b601080548060200260200160405190810160405280929190818152602001828054801561105c57602002820191906000526020600020905b8160009054906101000a900473ffffffffffffffffffffffffffffffffffffffff1673ffffffffffffffffffffffffffffffffffffffff1681526020019060010190808311611012575b5050505050905090565b600080600181111561107457fe5b600960009054906101000a900460ff16600181111561108f57fe5b14151561109b57600080fd5b60065434101515156110ac57600080fd5b6000601160003373ffffffffffffffffffffffffffffffffffffffff1673ffffffffffffffffffffffffffffffffffffffff168152602001908152602001600020541415156110fa57600080fd5b600654601160003373ffffffffffffffffffffffffffffffffffffffff1673ffffffffffffffffffffffffffffffffffffffff168152602001908152602001600020600082825401925050819055506013805480600101828161115d9190611709565b9160005260206000209001600033909190916101000a81548173ffffffffffffffffffffffffffffffffffffffff021916908373ffffffffffffffffffffffffffffffffffffffff160217905550506006543403905060008111156111fd573373ffffffffffffffffffffffffffffffffffffffff166108fc829081150290604051600060405180830381858888f1935050505015156111fc57600080fd5b5b7fd90d253a9de34d2fdd5a75ae49ea17fcb43af32fc8ea08cc6d2341991dd3872e333073ffffffffffffffffffffffffffffffffffffffff1631604051808373ffffffffffffffffffffffffffffffffffffffff1673ffffffffffffffffffffffffffffffffffffffff1681526020018281526020019250505060405180910390a1426004541080156112a857506007543073ffffffffffffffffffffffffffffffffffffffff1631115b15611304576112b56116be565b7f12333b322723ec26360eb708b341801ecca576387b55caa77d6e408107d2c70f3073ffffffffffffffffffffffffffffffffffffffff16316040518082815260200191505060405180910390a15b50565b6000809054906101000a900473ffffffffffffffffffffffffffffffffffffffff1673ffffffffffffffffffffffffffffffffffffffff163373ffffffffffffffffffffffffffffffffffffffff1614151561136257600080fd5b600073ffffffffffffffffffffffffffffffffffffffff168173ffffffffffffffffffffffffffffffffffffffff161415151561139e57600080fd5b8073ffffffffffffffffffffffffffffffffffffffff166000809054906101000a900473ffffffffffffffffffffffffffffffffffffffff1673ffffffffffffffffffffffffffffffffffffffff167f8be0079c531659141344cd1fd0a4f28419497f9722a3daafe3b4186f6b6457e060405160405180910390a3806000806101000a81548173ffffffffffffffffffffffffffffffffffffffff021916908373ffffffffffffffffffffffffffffffffffffffff16021790555050565b6000600554905090565b600080600a81905550426003819055506000600960006101000a81548160ff0219169083600181111561149557fe5b021790555060009050600090505b60138054905081101561153a57601260006013838154811015156114c357fe5b906000526020600020900160009054906101000a900473ffffffffffffffffffffffffffffffffffffffff1673ffffffffffffffffffffffffffffffffffffffff1673ffffffffffffffffffffffffffffffffffffffff1681526020019081526020016000206000905580806001019150506114a3565b601360006115489190611749565b600090505b6010805490508110156115e457600f600060108381548110151561156d57fe5b906000526020600020900160009054906101000a900473ffffffffffffffffffffffffffffffffffffffff1673ffffffffffffffffffffffffffffffffffffffff1673ffffffffffffffffffffffffffffffffffffffff16815260200190815260200160002060009055808060010191505061154d565b601060006115f29190611749565b60055460035401600481905550600c54600a024233600854604051808481526020018373ffffffffffffffffffffffffffffffffffffffff1673ffffffffffffffffffffffffffffffffffffffff166c01000000000000000000000000028152601401828152602001935050505060405180910390206001900481151561167557fe5b06600b8190555050565b6000600a600254600c54600a0a0281151561169657fe5b043073ffffffffffffffffffffffffffffffffffffffff16318115156116b857fe5b04905090565b6001600960006101000a81548160ff021916908360018111156116dd57fe5b021790555042600a819055506000600381905550600060048190555061170161167f565b600181905550565b8154818355818115116117305781836000526020600020918201910161172f919061176a565b5b505050565b602060405190810160405280600081525090565b5080546000825590600052602060002090810190611767919061176a565b50565b61178c91905b80821115611788576000816000905550600101611770565b5090565b905600a165627a7a72305820295b989946d284377b968f588926b82b26776b574f9cdd501ae4680d3a1f06a50029",
  "source": "pragma solidity ^0.4.17;\n\nimport 'zeppelin-solidity/contracts/ownership/Ownable.sol';\n\ncontract Treasure is Ownable {\n    uint bettingPrice;\n    uint bettingRate; // 1-10\n\n    uint investStartedAt;\n    uint investExpireAt;\n    uint investPeriodInSeconds;\n    uint investPricePerAddress;\n    uint minimumWinningReward;\n\n    uint round;\n    enum Status {INVESTING, BETTING}\n\n    Status currentState;\n    uint gameStartedAt;\n\n\n    uint winningNumber;\n    uint winningNumberDigits;\n\n    struct Reward {\n        uint round;\n        uint date;\n        uint amount;\n    }\n\n    mapping(address => Reward) public winners;\n\n    mapping(address => uint) public hunters;\n    mapping(address => uint) public currentHunters;\n    address[] public currentHunterAddresses;\n    mapping(address => uint) public investors;\n    mapping(address => uint) public currentInvestors;\n    address[] public currentInvestorAddresses;\n\n    event Bet(address _hunter);\n    event Invest(address _investor, uint _reward);\n    event StartGame(uint _reward);\n    event FinishGame(address _hunter, uint _winningNumber, uint _reward);\n\n    function Treasure() public {\n        round = 1;\n        winningNumberDigits = 3;\n        investPeriodInSeconds = 60;\n        bettingRate=5;\n        minimumWinningReward= 0.005 ether;\n        investPricePerAddress = minimumWinningReward / 3;\n        bettingPrice = 0;\n        initGame();\n    }\n\n    function initGame() private {\n        gameStartedAt = 0;\n        investStartedAt = now;\n        currentState = Status.INVESTING;\n        uint i=0;\n        for(i=0; i <currentInvestorAddresses.length;i++){\n            delete currentInvestors[currentInvestorAddresses[i]];\n        }\n        delete currentInvestorAddresses;\n\n        for(i=0; i <currentHunterAddresses.length;i++){\n            delete currentHunters[currentHunterAddresses[i]];\n        }\n        delete currentHunterAddresses;\n\n        investExpireAt = investStartedAt + investPeriodInSeconds;\n        winningNumber = uint(keccak256(now, msg.sender, round)) % (10 * winningNumberDigits);\n    }\n\n    //  bettingPrice = Reward/10**winningNumberDigits*bettingRate\n    function startGame() private {\n        currentState = Status.BETTING;\n        gameStartedAt = now;\n        investStartedAt = 0;\n        investExpireAt = 0;\n        bettingPrice = getNewBettingPrice();\n    }\n\n    function finishGame() private {\n        initGame();\n    }\n\n    function getBettingPrice() public view returns (uint){\n        return bettingPrice;\n    }\n\n    function getNewBettingPrice() private view returns(uint){\n        return (address(this).balance)/((10**winningNumberDigits)*bettingRate/10);\n    }\n\n    function getWinningNumberDigits() public view returns (uint){\n        return winningNumberDigits;\n    }\n\n    function setWinningNumberDigits(uint _digits) external onlyOwner {\n        require(gameStartedAt != 0);\n\n        winningNumberDigits = _digits;\n    }\n\n    function getInvestPeriod() public view returns (uint){\n        return investPeriodInSeconds;\n    }\n\n    function getInvestExpireAt() public view returns (uint){\n        return investExpireAt;\n    }\n\n    function setInvestPeriod(uint _inSeconds) external onlyOwner {\n        require(gameStartedAt != 0);\n\n        investPeriodInSeconds = _inSeconds;\n    }\n\n    function getInvestPrice() public view returns (uint) {\n        return investPricePerAddress;\n    }\n\n    function setInvestPricePerAddress(uint _price) external onlyOwner {\n        require(gameStartedAt != 0);\n\n        investPricePerAddress = _price;\n    }\n\n    function getHunterAddresses() public view returns (address[]){\n        return currentHunterAddresses;\n    }\n\n    function getInvestorAddresses() public view returns (address[]){\n        return currentInvestorAddresses;\n    }\n\n    /* TODO: 이 함수는 필요 없을 것 같습니다. web3에서 직접 접근해서 값을 가져 올 수 있습니다. */\n    function getClientBalance(address _addr) public view returns (uint) {\n        return _addr.balance;\n    }\n\n    function getMinimumWinningReward() public view returns (uint) {\n        return minimumWinningReward;\n    }\n\n    function setMinimumWinningReward(uint _minimum) external onlyOwner {\n        minimumWinningReward = _minimum;\n    }\n\n    function getReward() public view returns (uint) {\n        return address(this).balance;\n    }\n\n    function getState() public view returns (Status) {\n        return currentState;\n    }\n\n    function getContractAddress() public view returns (address) {\n        return address(this);\n    }\n\n    function invest() payable public {\n        require(currentState == Status.INVESTING);\n        require(msg.value >= investPricePerAddress);\n        require(investors[msg.sender] == 0);\n\n\n        investors[msg.sender] += investPricePerAddress;\n        currentInvestorAddresses.push(msg.sender);\n\n        uint _overSentValue = msg.value - investPricePerAddress;\n        if (_overSentValue > 0) {\n            msg.sender.transfer(_overSentValue);\n        }\n\n        emit Invest(msg.sender, address(this).balance);\n\n        if (investExpireAt < now && address(this).balance > minimumWinningReward){\n\n            startGame();\n            emit StartGame(address(this).balance);\n        }\n    }\n\n    function bet(uint _guessingNumber) payable public {\n        require(currentState == Status.BETTING);\n        require(msg.value >= bettingPrice);\n\n        hunters[msg.sender] += bettingPrice;\n        currentHunterAddresses.push(msg.sender);\n\n        uint _overSentValue = msg.value - bettingPrice;\n        if (_overSentValue > 0) {\n            msg.sender.transfer(_overSentValue);\n        }\n\n        bool _won = _guessingNumber == winningNumber;\n        if (_won) {\n            uint _totalReward = address(this).balance;\n            uint _betterReward = _totalReward / 2;\n            uint _investorsReward = _totalReward - _betterReward;\n            uint _investorsCount = currentInvestorAddresses.length ;\n            uint _investorReward = _investorsReward / _investorsCount;\n            msg.sender.transfer(_betterReward);\n\n            winners[msg.sender] = Reward({amount : _totalReward, date : now, round : round});\n\n            emit FinishGame(msg.sender, winningNumber, _betterReward);\n\n            for (uint i = 0; i < _investorsCount; i++) {\n                currentInvestorAddresses[i].transfer(_investorReward);\n            }\n            initGame();\n        } else {\n            bettingPrice = getNewBettingPrice();\n\n            emit Bet(msg.sender);\n        }\n    }\n}",
  "sourcePath": "/Users/user/Workspace/treasure-hunter/contracts/Treasure.sol",
  "compiler": {
    "name": "solc",
    "version": "0.4.21+commit.dfe3193c.Emscripten.clang"
  },
  "schemaVersion": "2.0.0",
  "updatedAt": "2018-04-30T05:46:32.393Z"
}